S01100004279676765726E34312E73726563E0
S11300000C9438000C9442000C9442000C9442006E
S11300100C9442000C9442000C9442000C94420054
S11300200C9442000C9442000C9442000C94420044
S11300300C9442000C9442000C9442000C94420034
S11300400C9442000C9442000C9442000C94420024
S11300500C9442000C9442000C9442000C94420014
S11300600C9442000C9442000C9442000C94420004
S113007011241FBECFEFD4E0DEBFCDBF0E945300DA
S11300800C9462000C94000090BD89B988E18AB98F
S11300908EE880BD08955D9BFECF8CB908955F9B6B
S11300A0FECF8CB1089581B38E7F81BB81B3826012
S11300B081BB87E690E00E9444000E944F000E94AA
S10B00C04B00FBCFF894FFCFC5
S9030000FC
