:100000000C9460030C947D030C947D030C947D038D
:100010000C947D030C947D030C947D030C947D0360
:100020000C947D030C947D030C947D030C947D0350
:100030000C947D030C947D030C947D030C947D0340
:100040000C947D030C947D030C947D030C947D0330
:100050000C947D030C947D030C947D030C947D0320
:100060000C947D030C947D030C947D030C947D0310
:1000700000000000005C00000C000C007C287C28C4
:1000800058DC68002410480028542840000C000068
:10009000007884008478000054385400107C1000EC
:1000A00080400000101010000040000060100C00A4
:1000B00038543800487C40004864580044542C00B0
:1000C0001C107C005C5424003854240064140C0080
:1000D00068542C0048543800004800008048000054
:1000E0001028440028282800442810000454080040
:1000F00038445C00781478007C5428003844280088
:100100007C4438007C5444007C140400384474005F
:100110007C107C00447C440020403C007C106C003F
:100120007C4040007C187C0078103C00384438004B
:100130007C1408003844B8007C146800485424003B
:10014000047C04007C407C003C603C007C307C00F3
:100150006C106C000C700C0064544C00007C44006B
:100160000C106000447C00000804080080808000BF
:1001700000040800304878007C48300030484800CF
:1001800030487C00306850001078140090A8780047
:100190007C08700050744000808074007C106800FF
:1001A000447C4000781078007808700030483000B7
:1001B000F82810003048F80078100800505828003F
:1001C000083C4800384078003840380078207800F3
:1001D0004830480098A0780048685800107884009B
:1001E000007C00008478100008040804000000006F
:1001F0000000005F00000007000700147F147F1458
:10020000242A7F2A1223130864623649552250009B
:1002100005030000001C2241000041221C00082AA6
:100220001C2A0808083E080800503000000808088A
:100230000808006060000020100804023E51494593
:100240003E00427F400042615149462141454B31C9
:100250001814127F1027454545393C4A4949300159
:10026000710905033649494936064949291E0036B0
:100270003600000056360000000814224114141401
:10028000141441221408000201510906324979412F
:100290003E7E1111117E7F494949363E414141223E
:1002A0007F4141221C7F494949417F090901013EA3
:1002B000414151327F0808087F00417F41002040C2
:1002C000413F017F081422417F404040407F0204AB
:1002D000027F7F0408107F3E4141413E7F090909AA
:1002E000063E4151215E7F09192946464949493157
:1002F00001017F01013F4040403F1F2040201F7F00
:100300002018207F631408146303047804036151E8
:1003100049454300007F4141020408102041417FCC
:100320000000040201020440404040400001020479
:100330000020545454787F4844443838444444207E
:10034000384444487F3854545418087E0901020840
:100350001454543C7F0804047800447D400020403D
:10036000443D00007F10284400417F40007C041879
:1003700004787C0804047838444444387C14141409
:1003800008081414187C7C080404084854545420A9
:10039000043F4440203C4040207C1C2040201C3C2A
:1003A0004030403C44281028440C5050503C446499
:1003B000544C44000836410000007F0000004136E4
:1003C000080002010302010000000000000000001C
:1003D000065F5F0600000000070700070700001423
:1003E0007F7F147F7F1400242E6B6B3A120000462F
:1003F0006630180C666200307A4F5D377A48000428
:1004000007030000000000001C3E634100000000E4
:1004100041633E1C000000082A3E1C1C3E2A0808BE
:10042000083E3E0808000000A0E060000000000850
:100430000808080808000000006060000000006074
:1004400030180C060301003E7F594D7F3E000042EC
:10045000427F7F40400000627359496F660000226E
:100460006349497F360000181C16137F7F10002750
:100470006745457D3900003C7E4B497930000003DB
:100480006371190F070000367F49497F3600000667
:100490004F49693F1E000000006C6C000000000026
:1004A000A0EC6C00000000081C3663410000001442
:1004B00014141414140000004163361C08000002D8
:1004C0000351590F0600003E7F415D5D1F1E007CF9
:1004D0007E13137E7C0000417F7F49497F36001CDC
:1004E0003E634141632200417F7F41637F1C0041A5
:1004F0007F7F495D416300417F7F491D0103001CEF
:100500003E6341517372007F7F08087F7F000000C7
:10051000417F7F41000000307040417F3F0100413A
:100520007F7F081C776300417F7F41406070007FC0
:100530007F060C067F7F007F7F060C187F7F001CE4
:100540003E6341633E1C00417F7F49090F06001E48
:100550003F21717F5E0000417F7F19396F46002681
:10056000674D597B32000003417F7F410300007FCC
:100570007F40407F7F00001F3F60603F1F00007F83
:100580007F3018307F7F0063771C081C776300077B
:100590004F78784F0700006773594D47637100002B
:1005A0007F7F41410000000103060C18306000000D
:1005B00041417F7F000000080C0603060C08008004
:1005C000808080808080800000030704000000207D
:1005D0007454543C784000413F7F44447C38003898
:1005E0007C44446C280000307848493F7F40003804
:1005F0007C54545C180000487E7F49030200009838
:10060000BCA4A4F87C0400417F7F08047C7800002F
:10061000447D7D4000000040C484FD7D0000004119
:100620007F7F10386C440000417F7F400000007CD9
:100630007C0C180C7C78007C7C04047C78000038EE
:100640007C44447C38000084FCF8A4243C18001846
:100650003C24A4F8FC8400447C78441C1800004826
:100660005C54547424000000043E7F442400003C89
:100670007C40403C7C40001C3C60603C1C00003CDA
:100680007C6030607C3C00446C3810386C44009CCA
:10069000BCA0A0FC7C00004C64745C4C64000008AE
:1006A000083E7741410000000000777700000041DC
:1006B00041773E0808000002030103020301000025
:1006C00011241FBECFEFD4E0DEBFCDBF12E0A0E00B
:1006D000B1E0E8ECFBE102C005900D92A033B10758
:1006E000D9F722E0A0E3B2E001C01D92AA33B2071D
:1006F000E1F70E947F030C94E20D0C940000CDB74B
:10070000DEB72A970FB6F894DEBF0FBECDBF8FEFCE
:1007100084BB8FE190E00E94C1030E9468050E94A3
:1007200018060E9469040E94A10680E00E94CD067E
:1007300065ED73E080ED93E00E94E30885B7806883
:1007400085BFCE0101960E9480041A861986C12CAD
:100750006894EE24E2F8F12C09811A812B813C8106
:100760004D815E816F817885CE0109960E94C30715
:100770000E9463051F928F930E942D090F900F9086
:10078000E6CF90BD89B988E18AB98EE880BD089529
:100790005D9BFECF8CB908955F9BFECF8CB1089511
:1007A0000E94C80380E090E008950E94CC0390E08E
:1007B0000895CF92DF92EF92FF920F931F93CF9302
:1007C000DF938CE091E00E9443090E94D308C82E79
:1007D000D92E0E94D80800E010E0C0E0D0E00F2E33
:1007E000F2E2EF2EF1E0FF2EF02D06C00F5F1F4F5B
:1007F000011598E01907F9F00E94D308282F392F26
:10080000F801F85E80834081481781F333273F93D6
:100810002F931F924F931F930F93FF92EF920E947B
:100820002D0921968DB79EB708960FB6F8949EBFF6
:100830000FBE8DBFDBCF8C2D9D2D0E94D808C12C03
:10084000D12C00E010E00F2EFBE5EF2EF1E0FF2EA3
:10085000F02D07C09FEFC91AD90AC11488E0D80645
:10086000F9F00E94D308282F392FF601F85E808115
:10087000821781F333273F932F931F928F93DF9239
:10088000CF92FF92EF920E942D090F5F1F4F8DB7FD
:100890009EB708960FB6F8949EBF0FBE8DBFDACFF5
:1008A0001F930F93DF93CF9388E991E09F938F93EA
:1008B0000E942D090F900F900F900F900F900F90A6
:1008C000DF91CF911F910F91FF90EF90DF90CF902C
:1008D00008958D9A80E48FBD89E08EBD81E090E01F
:1008E0009BBD8ABD0895E0910001F091010181E076
:1008F00080838FEF9FE20197F1F700C00000089519
:10090000CF93DF93C82FD92F0E947304E091000189
:10091000F091010180818D8380818C8380818F8320
:1009200080818F83DF91CF9108950F931F93CF9391
:10093000DF93C82FD92F0E947304E0910001F0913A
:10094000010120816D81261708F459C0261B330B45
:1009500044E6429FC001439F900D112424EF30E0F4
:10096000A901461B5109BA010E945F0865360CF4C3
:1009700053C084E68983E0910001F0910101208158
:100980006C81261708F44FC0261B330B44E6429FA8
:10099000C001439F900D112425EF30E0D901A61B23
:1009A000B109BD010E945F0865360CF449C084E6B8
:1009B00088830091000110910101F80120812F57D7
:1009C000330B44E6429FC001439F900D1124EFE793
:1009D000F0E0BF010E945F086B83D8012C912F5774
:1009E000330B429FC001439F900D1124BF010E9411
:1009F0005F086A83DF91CF911F910F910895261BA5
:100A0000330B44E6429FC001439F900D112466546E
:100A1000770B0E945F08AACF6C391CF48CE989839C
:100A2000AACF6983A8CF261B330B44E6429FC0019F
:100A3000439F900D11246F53770B0E945F08B4CF32
:100A40006C391CF48CE98883B4CF6883B2CF0F93E0
:100A50001F93CF93DF93CDB7DEB728970FB6F894E7
:100A6000DEBF0FBECDBFE02FF12F822F27FD2195D6
:100A70002630C8F4832F87FD81958630F0F0832FD0
:100A8000330F990B97FB992790F980E0908381832E
:100A900028960FB6F894DEBF0FBECDBFDF91CF9181
:100AA0001F910F910895932F97FD9195921738F705
:100AB000811534F093E080E0E9CF94E080E0E6CF68
:100AC00092E080E0E3CFBB988827B39B839508959D
:100AD00082B38C6182BB81B38C6181BB87B3806B35
:100AE00087BBBE988DB181658DB90895282F392FA8
:100AF00082B38C6182BB2130310539F0223031055F
:100B000031F0232B29F4929808959398089594989E
:100B1000089582B38C6182BB08958FB9779BFECF15
:100B200008951FB8779BFECF8FB108950F931F9341
:100B3000CF93DF93082F192F862F972F009749F017
:100B4000E801080F191F89910E948D05C017D10770
:100B5000D1F7DF91CF911F910F9108950F931F93BC
:100B6000CF93DF93082F192F862F972F009749F0E7
:100B7000E801080F191F0E9491058993C017D1073A
:100B8000D1F7DF91CF911F910F910895CF93C82F87
:100B9000C29880E090E00E9476058C2F0E948D051F
:100BA0000E948905CF910895CF93C82FC29A80E003
:100BB00090E00E9476058C2F0E948D050E94890589
:100BC000CF91089580550E94C6050895CF93C82FF0
:100BD0008F700E94C6058C2F82958F70805F0E9457
:100BE000C605CF910895CF93DF930E94E20580E080
:100BF0000E94E605C0E8D0E080E00E94D40521977D
:100C00002097D1F7DF91CF910895CF93DF9380E0C4
:100C10000E94E60580E00E94E205C0E0D4E080E0AA
:100C20000E94D40521972097D1F7DF91CF910895A5
:100C3000BA9A81EA0E94C60588EC0E94C6058FEA2E
:100C40000E94C60580E20E94C60580E00E94C6059B
:100C50000E9405060895CF93C82F862F0E94E605AF
:100C60008C2F0E94E205CF9108950F931F93CF938D
:100C7000DF93262F372F805221303105D9F02230D3
:100C8000310581F1232B89F4C82FD0E0CC0FDD1F73
:100C9000CC0FDD1FC059DF4F14E0FE0184910E948C
:100CA000D405115021961111F8CFDF91CF911F91EA
:100CB0000F910895C82FD0E0CE01880F991F880F9B
:100CC000991FC80FD91FC451DE4F15E0FE01849152
:100CD0000E94D405115021961111F8CF80E00E9496
:100CE000D405E3CFC82FD0E0CC0FDD1FCC0FDD1F24
:100CF000CC0FDD1F8E0109531C4FC153DC4FF8018F
:100D000084910E94D4050F5F1F4F0C171D07B9F780
:100D1000CCCF0F931F93CF93DF93C82FD92F162FCC
:100D2000072F8881811541F02196612F702F0E9435
:100D3000350689918111F9CFDF91CF911F910F91E4
:100D40000895CF93DF9300D000D000D0CDB7DEB7A9
:100D50006DE283E00E942B0686E0E1EFF1E0DE0128
:100D6000119601900D928A95E1F762E070E0CE0154
:100D700001960E9489062FEF8FEF9CE22150804060
:100D80009040E1F700C000C00F900F900F900F90BF
:100D90000F900F90DF91CF9108951F93CF93DF9322
:100DA000CDB7DEB7AA970FB6F894DEBF0FBECDBFA2
:100DB000182F0E94050660E0812F0E942B068DE20D
:100DC0009EE39A8389831B8261E070E0CE010196E5
:100DD0000E94890664E180E00E942B068FE0E7EF25
:100DE000F1E0DE01149601900D928A95E1F761E041
:100DF00070E0CE0104960E94890664E181E00E94C1
:100E00002B068BE0E6E0F2E0DE01539601900D92B6
:100E10008A95E1F761E070E0CE0143960E94890671
:100E200064E182E00E942B068DE0E1E1F2E0DE0168
:100E30005E9601900D928A95E1F761E070E0CE0137
:100E40004E960E948906AA960FB6F894DEBF0FBE92
:100E5000CDBFDF91CF911F910895CF92DF92EF9296
:100E6000FF920F931F93CF93DF93E82EF92EC62E98
:100E7000D72EC42FD52FF701808191818430910521
:100E800049F1019781F1F70180819181892B11F559
:100E9000F60180818115F1F081508083F701808116
:100EA0009181049799F0CE010E94950487012881D1
:100EB00039814A815B816C817D818E819F810E9415
:100EC0002705F70180819181049769F7F6018081F8
:100ED0000E94CD06DF91CF911F910F91FF90EF906F
:100EE000DF90CF900895F6018081823098F78F5F70
:100EF0008083F70180819181049799F0CE010E944F
:100F000095048701288139814A815B816C817D81CB
:100F10008E819F810E942705F7018081918104972E
:100F200069F7F60180810E94CD06ADCFCF92DF92A6
:100F3000EF92FF920F931F93CF93DF93E82EF92E3A
:100F4000C62ED72EC42FD52FCE010E9495040E2D6C
:100F50001F2D288139814A815B816C817D818E8141
:100F60009F810E942705AE016C2D7D2D8E2D9F2D1A
:100F70000E942D07DF91CF911F910F91FF90EF906D
:100F8000DF90CF900895AF92BF92CF92EF92FF92F1
:100F90000F931F93CF93DF93CDB7DEB76D970FB647
:100FA000F894DEBF0FBECDBFA82EB92E0B8B1C8BC5
:100FB0002D8B3E8B4F8B588F698F7A8FFC8EEB8EEB
:100FC000CD8EF501808191818230910509F45DC05B
:100FD00050F5892BA9F10E94050664E184E00E9486
:100FE0002B0682E1EEE1F2E0DE01119601900D9216
:100FF0008A95E1F762E070E0CE0101960E948906D1
:10100000AE014D5E5F4FBE01635E7F4FCE014B96DA
:101010000E9496070E946305811509F440C0F501FE
:10102000118210823CC00397D1F5AE014D5E5F4F37
:10103000BE01635E7F4FCE014B960E9496072FC084
:10104000AE014D5E5F4FBE01635E7F4FCE014B969A
:101050000E9496070E946305811509F18D8D81110B
:1010600006C081E090E0F5019183808318C0813053
:1010700031F083E090E0F5019183808310C082E03D
:1010800090E0F501918380830AC0AE014D5E5F4F11
:10109000BE01635E7F4FCE014B960E9496076D9610
:1010A0000FB6F894DEBF0FBECDBFDF91CF911F9179
:1010B0000F91FF90EF90CF90BF90AF90089597FB66
:1010C000072E16F4009407D077FD09D00E9473080C
:1010D00007FC05D03EF4909581959F4F089570953B
:1010E00061957F4F0895AA1BBB1B51E107C0AA1F42
:1010F000BB1FA617B70710F0A61BB70B881F991FB9
:101100005A95A9F780959095BC01CD0108958F92CD
:101110009F92AF92BF92CF92DF92EF92FF92CF93C6
:10112000DF93EC01688179818A819B81611571056A
:101130008105910521F464E279ED8BE597E02DE1DD
:1011400033EF41E050E00E94480D49015A019B01F4
:10115000AC01A7EAB1E40E94670D6B017C01ACEE23
:10116000B4EFA50194010E94750DDC01CB018C0D3B
:101170009D1DAE1DBF1DB7FF03C00197A109B0485B
:1011800088839983AA83BB839F77DF91CF91FF9058
:10119000EF90DF90CF90BF90AF909F908F90089589
:1011A0000E948708089582E091E00E9487080895D0
:1011B000A0E0B0E08093020190930301A0930401AA
:1011C000B093050108950F931F93CF93DF93EC0124
:1011D0008B01892B51F4672B41F4E0E0F0E0CF0163
:1011E000DF91CF911F910F9108956EE070E081E043
:1011F00090E00E945A0BFC01892B79F380E88383ED
:101200000115110571F01387028781E883838091AE
:10121000300290913102892B21F4F0933102E09356
:1012200030022097E1F2D187C08783818260838377
:101230008091320290913302892B89F6F093330228
:10124000E09332028091340290913502892B39F675
:10125000F0933502E0933402C2CFA0E0B0E0E3E3C4
:10126000F9E00C948A0DAE014B5F5F4FFA0161917A
:101270007191AF0180913202909133020E946F0907
:10128000E2E00C94A60D0F931F93CF93DF93E091B0
:101290003202F0913302238100E010E021FD0EC004
:1012A0000FEF1FEFC801DF91CF911F910F910895AC
:1012B0000995892B11F00FEF1FEFCE01EC018991F9
:1012C0006091320270913302DB011896ED91FC912E
:1012D0008111EECF8AE00995892B21F3E1CFABE0B4
:1012E000B0E0E5E7F9E00C947D0D6C017B018A012B
:1012F000FC0117821682838181FFD9C19AE0592EA1
:10130000F6012381F70123FD859123FF81917F0160
:10131000811509F41FC1853239F423FD959123FF0E
:1013200091917F01953229F4B60190E00E94BA0CA8
:10133000E7CF30E0912C612C712CF0E27F1640F564
:101340009B32D9F058F49032D1F09332F1F09E32C2
:1013500099F576FCFFC0689476F806C09D3291F04E
:101360009033C1F4689470F8F70123FD959123FF41
:1013700091917F019111E1CF29C0689471F868942F
:1013800072F8F2CF689473F8EFCF689474F8ECCFEA
:1013900077FC1CC080ED890F8A30C8F676FE05C048
:1013A000959C800D1124982EDFCF659C800D112413
:1013B000682E689475F8D8CF9C3619F4689477F83D
:1013C000D3CF9C3409F44BC0983671F2892F8F7DAE
:1013D0008554833008F445C0933609F466C09337CA
:1013E00009F469C0933509F475C0943619F099363B
:1013F00009F09FC0F80177FE95C0619171918191CC
:1014000091918F01272D2F76822E97FF09C09095FD
:101410008095709561957F4F8F4F9F4F689487F8A7
:101420002AE030E0AE014F5F5F4F5A010E94EA0CA4
:101430008A19A82E86FEC4C0882D8E7FA91408F0B4
:10144000BEC084FE11C182FC05C1F82DFE7E8F2E28
:10145000B92C882D8678811509F4BFC000C131E010
:1014600083CF3115F9F0085F1F4F8FE389838824FC
:101470008394912CAE014F5F5F4F5A01E89477F847
:1014800073FC03C086149104B0F181149104D1F56A
:10149000611409F435CFB60180E290E00E94BA0CE5
:1014A0006A94F6CF0C5F1F4FE0CFF80180818983EB
:1014B0000E5F1F4FDCCFF801A190B1908F01692D15
:1014C00070E076FC02C06FEF7FEFC5010E94AF0CA9
:1014D0004C01D4CFF801A190B1908F01692D70E03B
:1014E00076FC02C06FEF7FEFC5010E949D0C4C019E
:1014F000689477F8C5CFB60180E290E00E94BA0CFC
:101500006A94C0CFF50177FC859177FE81915F01E8
:10151000B60190E00E94BA0C61106A94F1E08F1A53
:101520009108B3CF61917191072E000C880B990B34
:1015300068CF872CE89484F82AE030E0953739F1B9
:10154000572D597F852E903799F058F49835A9F08A
:101550009F36D9F0F601868197812B96EFE00C94A7
:10156000990D9837B9F774FC05C020E130E00FC041
:10157000689484F8689482F8F8CF74FE03C0872DCD
:101580008660882E20E132E002C028E030E0F801D9
:1015900087FE10C061917191819191918F01FE013F
:1015A00031965F01AF010E94EA0C8A19A82EE894D7
:1015B00087F840CF6191719180E090E0EFCF882E65
:1015C000BA2C84FE46CFFE01EA0DF11D80818033E6
:1015D00009F043C0282D297E822E83FC0EC080FE98
:1015E0004FC09A2CB61418F4960C9B18B62C862D66
:1015F0008B196B1408F480E0B80EB61408F042C0E2
:101600006B1884FE41C0B60180E390E00E94BA0CE2
:1016100082FE09C088E590E081FC02C088E790E086
:10162000B6010E94BA0CA914D8F1AA94B12C4FEFBC
:10163000A41AB40ACE0101964C01A80EB91EF501F8
:1016400082915F01B60190E00E94BA0C8A149B045B
:10165000B1F71ECFB92C882EB6CF82FC02C0B3944E
:10166000BCCFB394B394B9CFB92C882EF2CEB601C7
:1016700080E290E00E94BA0C73947614C0F3B7CF66
:101680007B2CFBCF612CBDCF882D8678811559F23C
:1016900080E281FC8BE287FC8DE2B60190E0C1CF55
:1016A000B60180E390E00E94BA0C9A94BCCF8FEF11
:1016B0009FEF53CF0F931F93CF93DF93869F8001AC
:1016C000879F100D969F100D1124C8010E94760B64
:1016D000EC01009729F0A80160E070E00E94A80CDE
:1016E000CE01DF91CF911F910F9108950F931F931A
:1016F000CF93DF939C01029710F422E030E0E09159
:101700003602F091370280E090E0A0E0B0E0309740
:1017100091F4009709F448C0821B930B8430910523
:10172000D0F58A819B816115710581F1FB0193835D
:101730008283FE0111C040815181028113814217D1
:101740005307D8F04217530799F4109761F0129697
:101750000C93129713961C933296CF01DF91CF9181
:101760001F910F9108950093360210933702F4CF22
:10177000009751F04817590738F0AC01DB01CA0156
:10178000BD01DF01F801C3CFEF01F9CF909337021C
:1017900080933602CECFFE01E80FF91F21933193DB
:1017A000029799838883D9CF4091380250913902AA
:1017B0004115510541F440910801509109015093A0
:1017C00039024093380280910601909107010097F9
:1017D00041F48DB79EB760910A0170910B01861B91
:1017E000970B4817590708F0B8CF841B950B821741
:1017F000930708F4B2CFB9016E5F7F4F8617970742
:1018000008F4ABCF640F751F7093390260933802F0
:10181000FA0121933193A1CFCF93DF939C010097DD
:10182000E9F0FC01329713821282C0913602D09106
:101830003702DE0180E090E02097A1F48081918161
:10184000280F391F8091380290913902821793072F
:1018500009F068C0F0933902E0933802DF91CF912C
:101860000895DA01AE17BF0708F042C012964D91F5
:101870005C911397CD014115510599F7DC01139641
:10188000FC93EE9312974D915D919D01240F351FAE
:10189000E217F30781F4208131812E5F3F4F240F3F
:1018A000351FDC0111963C932E93228133811396D0
:1018B0003C932E931297E0E0F0E08A819B810097A1
:1018C000B1F5DE018D919D918A0F9B1F2091380209
:1018D000309139022817390709F6309759F51092D7
:1018E000370210923602D0933902C0933802B6CF35
:1018F000B383A28340815181240F351FA217B30700
:1019000071F44E5F5F4F2D913C911197240F351F5D
:101910003183208312962D913C913383228300974B
:1019200009F0ACCFF0933702E093360297CFFE0177
:10193000EC01C3CF13821282D6CFFC010590615017
:1019400070400110D8F7809590958E0F9F1F0895D5
:10195000DC0101C06D9341505040E0F70895FC0157
:101960006150704001900110D8F7809590958E0FCE
:101970009F1F08950F931F93CF93DF93182F092F65
:10198000EB018B8181FD09C01FEF0FEF812F902F9D
:10199000DF91CF911F910F91089582FF14C02E8186
:1019A0003F818C819D81281739073CF4E881F981BA
:1019B000CF0101969983888310838E819F81019640
:1019C0009F838E83E3CFE885F985812F0995892B45
:1019D000A1F3DACFFA01AA27283051F1203181F1A1
:1019E000E8946F936E7F6E5F7F4F8F4F9F4FAF4F27
:1019F000B1E03ED0B4E03CD0670F781F891F9A1F3A
:101A0000A11D680F791F8A1F911DA11D6A0F711DED
:101A1000811D911DA11D20D009F468943F912AE0F9
:101A2000269F11243019305D3193DEF6CF010895E1
:101A3000462F4770405D4193B3E00FD0C9F7F6CF12
:101A4000462F4F70405D4A3318F0495D31FD4052DA
:101A5000419302D0A9F7EACFB4E0A6959795879570
:101A600077956795BA95C9F700976105710508954F
:101A70009B01AC010A2E06945795479537952795FB
:101A8000BA95C9F7620F731F841F951FA01D089593
:101A9000052E97FB1EF400940E945F0D57FD07D0A2
:101AA0000E94B10D07FC03D04EF40C945F0D5095CD
:101AB0004095309521953F4F4F4F5F4F089590953A
:101AC0008095709561957F4F8F4F9F4F08950E942D
:101AD000D30DA59F900DB49F900DA49F800D911DD7
:101AE00011240895B7FF0C94670D0E94670D821BA7
:101AF000930B08952F923F924F925F926F927F9235
:101B00008F929F92AF92BF92CF92DF92EF92FF920D
:101B10000F931F93CF93DF93CDB7DEB7CA1BDB0BB9
:101B20000FB6F894DEBF0FBECDBF09942A8839885E
:101B300048885F846E847D848C849B84AA84B98465
:101B4000C884DF80EE80FD800C811B81AA81B98171
:101B5000CE0FD11D0FB6F894DEBF0FBECDBFED0185
:101B60000895A1E21A2EAA1BBB1BFD010DC0AA1FDE
:101B7000BB1FEE1FFF1FA217B307E407F50720F0F6
:101B8000A21BB30BE40BF50B661F771F881F991F71
:101B90001A9469F760957095809590959B01AC01BA
:101BA000BD01CF010895A29FB001B39FC001A39FC3
:101BB000700D811D1124911DB29F700D811D112486
:081BC000911D0895F894FFCF78
:101BC80000100100000000003A0220005374617206
:101BD80074696E67205352414D20746573742E2EBC
:101BE8002E0057726974652070686173652065728C
:101BF800726F723A206578745F72616D5B25346428
:101C08005D203D2025303258202873686F756C643C
:101C18002062652025303258290A0052657472699D
:101C28006576616C207068617365206572726F7289
:101C38003A206578745F72616D5B2534645D203D80
:101C48002025303258202873686F756C64206265CF
:101C58002025303258290A005352414D20746573AB
:101C68007420636F6D706C6574656420776974683F
:101C7800200A253464206572726F727320696E20A1
:101C8800777269746520706861736520616E64207D
:101C98000A253464206572726F727320696E20722F
:101CA800657472696576616C2070686173650A0A8B
:101CB8000048656C6C6F00537461727420737069AE
:101CC8006C6C65742100486967682073636F72657E
:101CD80000496E7374696C6C696E6765720048655B
:101CE80072207370696C6C6573206465743A29009E
:00000001FF
