:100000000C9460030C947D030C947D030C947D038D
:100010000C947D030C947D030C947D030C947D0360
:100020000C947D030C947D030C947D030C947D0350
:100030000C947D030C947D030C947D030C947D0340
:100040000C947D030C947D030C947D030C947D0330
:100050000C947D030C947D030C947D030C947D0320
:100060000C947D030C947D030C947D030C947D0310
:1000700000000000005C00000C000C007C287C28C4
:1000800058DC68002410480028542840000C000068
:10009000007884008478000054385400107C1000EC
:1000A00080400000101010000040000060100C00A4
:1000B00038543800487C40004864580044542C00B0
:1000C0001C107C005C5424003854240064140C0080
:1000D00068542C0048543800004800008048000054
:1000E0001028440028282800442810000454080040
:1000F00038445C00781478007C5428003844280088
:100100007C4438007C5444007C140400384474005F
:100110007C107C00447C440020403C007C106C003F
:100120007C4040007C187C0078103C00384438004B
:100130007C1408003844B8007C146800485424003B
:10014000047C04007C407C003C603C007C307C00F3
:100150006C106C000C700C0064544C00007C44006B
:100160000C106000447C00000804080080808000BF
:1001700000040800304878007C48300030484800CF
:1001800030487C00306850001078140090A8780047
:100190007C08700050744000808074007C106800FF
:1001A000447C4000781078007808700030483000B7
:1001B000F82810003048F80078100800505828003F
:1001C000083C4800384078003840380078207800F3
:1001D0004830480098A0780048685800107884009B
:1001E000007C00008478100008040804000000006F
:1001F0000000005F00000007000700147F147F1458
:10020000242A7F2A1223130864623649552250009B
:1002100005030000001C2241000041221C00082AA6
:100220001C2A0808083E080800503000000808088A
:100230000808006060000020100804023E51494593
:100240003E00427F400042615149462141454B31C9
:100250001814127F1027454545393C4A4949300159
:10026000710905033649494936064949291E0036B0
:100270003600000056360000000814224114141401
:10028000141441221408000201510906324979412F
:100290003E7E1111117E7F494949363E414141223E
:1002A0007F4141221C7F494949417F090901013EA3
:1002B000414151327F0808087F00417F41002040C2
:1002C000413F017F081422417F404040407F0204AB
:1002D000027F7F0408107F3E4141413E7F090909AA
:1002E000063E4151215E7F09192946464949493157
:1002F00001017F01013F4040403F1F2040201F7F00
:100300002018207F631408146303047804036151E8
:1003100049454300007F4141020408102041417FCC
:100320000000040201020440404040400001020479
:100330000020545454787F4844443838444444207E
:10034000384444487F3854545418087E0901020840
:100350001454543C7F0804047800447D400020403D
:10036000443D00007F10284400417F40007C041879
:1003700004787C0804047838444444387C14141409
:1003800008081414187C7C080404084854545420A9
:10039000043F4440203C4040207C1C2040201C3C2A
:1003A0004030403C44281028440C5050503C446499
:1003B000544C44000836410000007F0000004136E4
:1003C000080002010302010000000000000000001C
:1003D000065F5F0600000000070700070700001423
:1003E0007F7F147F7F1400242E6B6B3A120000462F
:1003F0006630180C666200307A4F5D377A48000428
:1004000007030000000000001C3E634100000000E4
:1004100041633E1C000000082A3E1C1C3E2A0808BE
:10042000083E3E0808000000A0E060000000000850
:100430000808080808000000006060000000006074
:1004400030180C060301003E7F594D7F3E000042EC
:10045000427F7F40400000627359496F660000226E
:100460006349497F360000181C16137F7F10002750
:100470006745457D3900003C7E4B497930000003DB
:100480006371190F070000367F49497F3600000667
:100490004F49693F1E000000006C6C000000000026
:1004A000A0EC6C00000000081C3663410000001442
:1004B00014141414140000004163361C08000002D8
:1004C0000351590F0600003E7F415D5D1F1E007CF9
:1004D0007E13137E7C0000417F7F49497F36001CDC
:1004E0003E634141632200417F7F41637F1C0041A5
:1004F0007F7F495D416300417F7F491D0103001CEF
:100500003E6341517372007F7F08087F7F000000C7
:10051000417F7F41000000307040417F3F0100413A
:100520007F7F081C776300417F7F41406070007FC0
:100530007F060C067F7F007F7F060C187F7F001CE4
:100540003E6341633E1C00417F7F49090F06001E48
:100550003F21717F5E0000417F7F19396F46002681
:10056000674D597B32000003417F7F410300007FCC
:100570007F40407F7F00001F3F60603F1F00007F83
:100580007F3018307F7F0063771C081C776300077B
:100590004F78784F0700006773594D47637100002B
:1005A0007F7F41410000000103060C18306000000D
:1005B00041417F7F000000080C0603060C08008004
:1005C000808080808080800000030704000000207D
:1005D0007454543C784000413F7F44447C38003898
:1005E0007C44446C280000307848493F7F40003804
:1005F0007C54545C180000487E7F49030200009838
:10060000BCA4A4F87C0400417F7F08047C7800002F
:10061000447D7D4000000040C484FD7D0000004119
:100620007F7F10386C440000417F7F400000007CD9
:100630007C0C180C7C78007C7C04047C78000038EE
:100640007C44447C38000084FCF8A4243C18001846
:100650003C24A4F8FC8400447C78441C1800004826
:100660005C54547424000000043E7F442400003C89
:100670007C40403C7C40001C3C60603C1C00003CDA
:100680007C6030607C3C00446C3810386C44009CCA
:10069000BCA0A0FC7C00004C64745C4C64000008AE
:1006A000083E7741410000000000777700000041DC
:1006B00041773E0808000002030103020301000025
:1006C00011241FBECFEFD4E0DEBFCDBF12E0A0E00B
:1006D000B1E0EAEBFAE102C005900D92AE31B1074C
:1006E000D9F722E0AEE1B2E001C01D92A832B20714
:1006F000E1F70E947F030C945B0D0C940000CDB7D2
:10070000DEB72B970FB6F894DEBF0FBECDBF8FEFCD
:1007100084BB8FE190E00E94DB030E949F050E9452
:100720004F060E9483040E94D806198280E00E942E
:1007300004076FEE73E08AEE93E00E945C0885B7D1
:10074000806885BF9E01285F3F4FAE01475F5F4FC6
:10075000BE01695F7F4FCE0106960E949A0484E035
:1007600090E09B878A87A984C884EF800E819E01D0
:100770002B5F3F4FAE014C5F5F4FBE016E5F7F4FFF
:10078000CE0103960E94D004AE01465F5F4F6B819D
:100790008A810E947905EF800E819E012D5F3F4F77
:1007A000AE014E5F5F4FBE016F5F7F4FCE010A9675
:1007B0000E946407D8CF90BD89B988E18AB98EE8D4
:1007C00080BD08955D9BFECF8CB908955F9BFECFE1
:1007D0008CB108950E94E20380E090E008950E94A9
:1007E000E60390E00895CF92DF92EF92FF920F938D
:1007F0001F93CF93DF938CE091E00E94BC080E948E
:100800004C08C82ED92E0E94510800E010E0C0E02C
:10081000D0E00F2EF2E2EF2EF1E0FF2EF02D06C019
:100820000F5F1F4F011598E01907F9F00E944C085F
:10083000282F392FF801F85E80834081481781F313
:1008400033273F932F931F924F931F930F93FF9242
:10085000EF920E94A60821968DB79EB708960FB614
:10086000F8949EBF0FBE8DBFDBCF8C2D9D2D0E94B7
:100870005108C12CD12C00E010E00F2EFBE5EF2E2B
:10088000F1E0FF2EF02D07C09FEFC91AD90AC1145D
:1008900088E0D806F9F00E944C08282F392FF6017D
:1008A000F85E8081821781F333273F932F931F9245
:1008B0008F93DF92CF92FF92EF920E94A6080F5F74
:1008C0001F4F8DB79EB708960FB6F8949EBF0FBE08
:1008D0008DBFDACF1F930F93DF93CF9388E991E019
:1008E0009F938F930E94A6080F900F900F900F90E8
:1008F0000F900F90DF91CF911F910F91FF90EF908C
:10090000DF90CF9008958D9A80E48FBD89E08EBDF1
:1009100081E090E09BBD8ABD0895E0910001F091D7
:10092000010181E080838FEF9FE20197F1F700C022
:1009300000000895CF92DF92EF92FF920F931F93E2
:10094000CF93DF93E82EF92EC62ED72E042F152F26
:10095000C22FD32F0E948D04E0910001F09101017C
:100960008081F6018083E0910001F0910101808196
:10097000F7018083E0910001F09101018081F8018D
:100980008083E0910001F091010180818883DF91F3
:10099000CF911F910F91FF90EF90DF90CF9008952E
:1009A0008F929F92AF92BF92CF92DF92EF920F936E
:1009B000CF93DF93882E992EC62FD72FC42ED52EF6
:1009C000A22EB32E0E948D04E0910001F09101014E
:1009D00020812E1508F45FC02E19330B44E6429F88
:1009E000C001439F900D112464EF70E06E197109EE
:1009F0000E94D80765360CF45DC084E6D4018C9360
:100A0000E0910001F09101012081201708F45BC002
:100A1000201B330B44E6429FC001439F900D1124DD
:100A200065EF70E0601B71090E94D80765360CF411
:100A300059C084E68883E0910001F0910101208192
:100A40002F57330B44E6429FC001439F900D112462
:100A5000EFE7F0E0BF010E94D807D5016C93A091A9
:100A60000001B09101012C912F57330B429FC0011F
:100A7000439F900D1124BF010E94D807F6016083A7
:100A8000DF91CF910F91EF90DF90CF90BF90AF901B
:100A90009F908F9008952E19330B44E6429FC0011A
:100AA000439F900D11242E2D2654330BB9010E9423
:100AB000D807A0CF6C3924F48CE9D4018C93A0CF53
:100AC000F40160839DCF201B330B44E6429FC0019D
:100AD000439F900D1124E02FEF53FF0BBF010E94A5
:100AE000D807A4CF6C391CF48CE98883A4CF688321
:100AF000A2CFE42FF52F982F97FD9195963078F49B
:100B0000862F87FD81958630A0F0062E000C770B8E
:100B100077FB992790F980E0908381830895262FB1
:100B200027FD2195291788F7811534F093E080E09F
:100B3000F3CF94E080E0F0CF92E080E0EDCF82B39D
:100B40008C6182BB81B38C6181BB87B3806B87BBB7
:100B5000BE988DB181658DB90895282F392F82B344
:100B60008C6182BB2130310539F02230310531F002
:100B7000232B29F4929808959398089594980895B2
:100B800082B38C6182BB08958FB9779BFECF0895A5
:100B90001FB8779BFECF8FB108950F931F93CF930C
:100BA000DF93082F192F862F972F009749F0E80120
:100BB000080F191F89910E94C405C017D107D1F7EA
:100BC000DF91CF911F910F9108950F931F93CF93B2
:100BD000DF93082F192F862F972F009749F0E801F0
:100BE000080F191F0E94C8058993C017D107D1F7B4
:100BF000DF91CF911F910F910895CF93C82FC29885
:100C000080E090E00E94AD058C2F0E94C4050E94F8
:100C1000C005CF910895CF93C82FC29A80E090E08D
:100C20000E94AD058C2F0E94C4050E94C005CF9183
:100C3000089580550E94FD050895CF93C82F8F70A9
:100C40000E94FD058C2F82958F70805F0E94FD05AC
:100C5000CF910895CF93DF930E94190680E00E9400
:100C60001D06C0E8D0E080E00E940B062197209787
:100C7000D1F7DF91CF910895CF93DF9380E00E9469
:100C80001D0680E00E941906C0E0D4E080E00E94CA
:100C90000B0621972097D1F7DF91CF910895BA9A4B
:100CA00081EA0E94FD0588EC0E94FD058FEA0E9402
:100CB000FD0580E20E94FD0580E00E94FD050E9486
:100CC0003C060895CF93C82F862F0E941D068C2FB7
:100CD0000E941906CF9108950F931F93CF93DF932E
:100CE000262F372F805221303105D9F0223031059F
:100CF00081F1232B89F4C82FD0E0CC0FDD1FCC0F5E
:100D0000DD1FC059DF4F14E0FE0184910E940B06E5
:100D1000115021961111F8CFDF91CF911F910F91B2
:100D20000895C82FD0E0CE01880F991F880F991F12
:100D3000C80FD91FC451DE4F15E0FE0184910E94F7
:100D40000B06115021961111F8CF80E00E940B067E
:100D5000E3CFC82FD0E0CC0FDD1FCC0FDD1FCC0FB1
:100D6000DD1F8E0109531C4FC153DC4FF8018491E4
:100D70000E940B060F5F1F4F0C171D07B9F7CCCF52
:100D80000F931F93CF93DF93C82FD92F162F072FC1
:100D90008881811541F02196612F702F0E946C0689
:100DA00089918111F9CFDF91CF911F910F91089512
:100DB000CF93DF9300D000D000D0CDB7DEB762E391
:100DC00083E00E94620686E0E1EFF1E0DE01119629
:100DD00001900D928A95E1F762E070E0CE010196F4
:100DE0000E94C0062FEF8FEF9CE221508040904080
:100DF000E1F700C000C00F900F900F900F900F9080
:100E00000F90DF91CF9108951F93CF93DF93CDB7CC
:100E1000DEB7AA970FB6F894DEBF0FBECDBF182F6E
:100E20000E943C0660E0812F0E9462068DE29EE3F4
:100E30009A8389831B8261E070E0CE0101960E9453
:100E4000C00664E180E00E9462068FE0E7EFF1E017
:100E5000DE01149601900D928A95E1F761E070E051
:100E6000CE0104960E94C00664E181E00E94620601
:100E70008BE0E6E0F2E0DE01539601900D928A9558
:100E8000E1F761E070E0CE0143960E94C00664E1A4
:100E900082E00E9462068DE0E1E1F2E0DE015E9612
:100EA00001900D928A95E1F761E070E0CE014E96D7
:100EB0000E94C006AA960FB6F894DEBF0FBECDBF43
:100EC000DF91CF911F9108954F925F926F927F9221
:100ED0008F929F92AF92CF92EF920F93CF93DF9327
:100EE000C82FD92F462E572E842E952E622E732E64
:100EF000888199810197B1F188819981892B29F5A0
:100F0000F2018081811509F1815080838881998166
:100F10000497B9F0A12CC12CE12C00E020E030E0D6
:100F200040E050E0B301C4010E94D004AE01F301DF
:100F30006081F40180810E947905888199810497FC
:100F400049F7F20180810E940407DF91CF910F9150
:100F5000EF90CF90AF909F908F907F906F905F9029
:100F60004F900895F2018081833078F78F5F8083FE
:100F7000888199810497B9F0A12CC12CE12C00E063
:100F800020E030E040E050E0B301C4010E94D00412
:100F9000AE01F3016081F40180810E9479058881AE
:100FA0009981049749F7F20180810E940407A4CF38
:100FB00097FB072E16F4009407D077FD09D00E9406
:100FC000EC0707FC05D03EF4909581959F4F08955E
:100FD000709561957F4F0895AA1BBB1B51E107C017
:100FE000AA1FBB1FA617B70710F0A61BB70B881FB9
:100FF000991F5A95A9F780959095BC01CD01089548
:101000008F929F92AF92BF92CF92DF92EF92FF9218
:10101000CF93DF93EC01688179818A819B8161158F
:1010200071058105910521F464E279ED8BE597E086
:101030002DE133EF41E050E00E94C10C49015A011B
:101040009B01AC01A7EAB1E40E94E00C6B017C01BA
:10105000ACEEB4EFA50194010E94EE0CDC01CB01D3
:101060008C0D9D1DAE1DBF1DB7FF03C00197A109CB
:10107000B04888839983AA83BB839F77DF91CF9100
:10108000FF90EF90DF90CF90BF90AF909F908F90A8
:1010900008950E940008089582E091E00E940008EF
:1010A0000895A0E0B0E08093020190930301A09323
:1010B0000401B093050108950F931F93CF93DF931D
:1010C000EC018B01892B51F4672B41F4E0E0F0E057
:1010D000CF01DF91CF911F910F9108956EE070E0E5
:1010E00081E090E00E94D30AFC01892B79F380E82B
:1010F00083830115110571F01387028781E88383CB
:1011000080911E0290911F02892B21F4F0931F02FF
:10111000E0931E022097E1F2D187C087838182602D
:1011200083838091200290912102892B89F6F0938C
:101130002102E09320028091220290912302892BC8
:1011400039F6F0932302E0932202C2CFA0E0B0E090
:10115000ECEAF8E00C94030DAE014B5F5F4FFA012F
:1011600061917191AF0180912002909121020E94C2
:10117000E808E2E00C941F0D0F931F93CF93DF93C9
:10118000E0912002F0912102238100E010E021FD96
:101190000EC00FEF1FEFC801DF91CF911F910F918C
:1011A00008950995892B11F00FEF1FEFCE01EC0187
:1011B00089916091200270912102DB011896ED91D6
:1011C000FC918111EECF8AE00995892B21F3E1CFC3
:1011D000ABE0B0E0EEEEF8E00C94F60C6C017B01B5
:1011E0008A01FC0117821682838181FFD9C19AE0AE
:1011F000592EF6012381F70123FD859123FF81916B
:101200007F01811509F41FC1853239F423FD9591C1
:1012100023FF91917F01953229F4B60190E00E945D
:10122000330CE7CF30E0912C612C712CF0E27F166B
:1012300040F59B32D9F058F49032D1F09332F1F06E
:101240009E3299F576FCFFC0689476F806C09D3210
:1012500091F09033C1F4689470F8F70123FD9591F3
:1012600023FF91917F019111E1CF29C0689471F81A
:10127000689472F8F2CF689473F8EFCF689474F8BA
:10128000ECCF77FC1CC080ED890F8A30C8F676FE63
:1012900005C0959C800D1124982EDFCF659C800D94
:1012A0001124682E689475F8D8CF9C3619F4689488
:1012B00077F8D3CF9C3409F44BC0983671F2892F5C
:1012C0008F7D8554833008F445C0933609F466C099
:1012D000933709F469C0933509F475C0943619F051
:1012E000993609F09FC0F80177FE95C06191719120
:1012F000819191918F01272D2F76822E97FF09C022
:1013000090958095709561957F4F8F4F9F4F689412
:1013100087F82AE030E0AE014F5F5F4F5A010E942C
:10132000630C8A19A82E86FEC4C0882D8E7FA9144E
:1013300008F0BEC084FE11C182FC05C1F82DFE7EFE
:101340008F2EB92C882D8678811509F4BFC000C175
:1013500031E083CF3115F9F0085F1F4F8FE38983A8
:1013600088248394912CAE014F5F5F4F5A01E8941B
:1013700077F873FC03C086149104B0F181149104D2
:10138000D1F5611409F435CFB60180E290E00E94F6
:10139000330C6A94F6CF0C5F1F4FE0CFF8018081C9
:1013A00089830E5F1F4FDCCFF801A190B1908F01B0
:1013B000692D70E076FC02C06FEF7FEFC5010E94DF
:1013C000280C4C01D4CFF801A190B1908F01692D68
:1013D00070E076FC02C06FEF7FEFC5010E94160C33
:1013E0004C01689477F8C5CFB60180E290E00E9486
:1013F000330C6A94C0CFF50177FC859177FE81911B
:101400005F01B60190E00E94330C61106A94F1E034
:101410008F1A9108B3CF61917191072E000C880B40
:10142000990B68CF872CE89484F82AE030E0953750
:1014300039F1572D597F852E903799F058F498350A
:10144000A9F09F36D9F0F601868197812B96EFE0BF
:101450000C94120D9837B9F774FC05C020E130E008
:101460000FC0689484F8689482F8F8CF74FE03C0C3
:10147000872D8660882E20E132E002C028E030E02F
:10148000F80187FE10C061917191819191918F0156
:10149000FE0131965F01AF010E94630C8A19A82EEC
:1014A000E89487F840CF6191719180E090E0EFCFB0
:1014B000882EBA2C84FE46CFFE01EA0DF11D8081F4
:1014C000803309F043C0282D297E822E83FC0EC074
:1014D00080FE4FC09A2CB61418F4960C9B18B62CAC
:1014E000862D8B196B1408F480E0B80EB61408F042
:1014F00042C06B1884FE41C0B60180E390E00E94B8
:10150000330C82FE09C088E590E081FC02C088E7C8
:1015100090E0B6010E94330CA914D8F1AA94B12C22
:101520004FEFA41AB40ACE0101964C01A80EB91EC1
:10153000F50182915F01B60190E00E94330C8A149C
:101540009B04B1F71ECFB92C882EB6CF82FC02C007
:10155000B394BCCFB394B394B9CFB92C882EF2CE48
:10156000B60180E290E00E94330C73947614C0F3CD
:10157000B7CF7B2CFBCF612CBDCF882D8678811512
:1015800059F280E281FC8BE287FC8DE2B60190E0AB
:10159000C1CFB60180E390E00E94330C9A94BCCF97
:1015A0008FEF9FEF53CF0F931F93CF93DF93869FC0
:1015B0008001879F100D969F100D1124C8010E9475
:1015C000EF0AEC01009729F0A80160E070E00E94AA
:1015D000210CCE01DF91CF911F910F9108950F93B0
:1015E0001F93CF93DF939C01029710F422E030E029
:1015F000E0912402F091250280E090E0A0E0B0E0CC
:10160000309791F4009709F448C0821B930B843003
:101610009105D0F58A819B816115710581F1FB01EE
:1016200093838283FE0111C0408151810281138125
:1016300042175307D8F04217530799F4109761F0F7
:1016400012960C93129713961C933296CF01DF914A
:10165000CF911F910F9108950093240210932502BA
:10166000F4CF009751F04817590738F0AC01DB016F
:10167000CA01BD01DF01F801C3CFEF01F9CF90939B
:10168000250280932402CECFFE01E80FF91F21939B
:101690003193029799838883D9CF40912602509144
:1016A00027024115510541F440910801509109016B
:1016B00050932702409326028091060190910701E2
:1016C000009741F48DB79EB760910A0170910B01AC
:1016D000861B970B4817590708F0B8CF841B950B4A
:1016E0008217930708F4B2CFB9016E5F7F4F861758
:1016F000970708F4ABCF640F751F709327026093B0
:101700002602FA0121933193A1CFCF93DF939C015D
:101710000097E9F0FC01329713821282C0912402F3
:10172000D0912502DE0180E090E02097A1F4808135
:101730009181280F391F80912602909127028217EC
:10174000930709F068C0F0932702E0932602DF9127
:10175000CF910895DA01AE17BF0708F042C0129684
:101760004D915C911397CD014115510599F7DC011D
:101770001396FC93EE9312974D915D919D01240F6A
:10178000351FE217F30781F4208131812E5F3F4F2F
:10179000240F351FDC0111963C932E932281338157
:1017A00013963C932E931297E0E0F0E08A819B81A0
:1017B0000097B1F5DE018D919D918A0F9B1F2091BD
:1017C0002602309127022817390709F6309759F574
:1017D0001092250210922402D0932702C093260271
:1017E000B6CFB383A28340815181240F351FA21746
:1017F000B30771F44E5F5F4F2D913C911197240F09
:10180000351F3183208312962D913C91338322839F
:10181000009709F0ACCFF0932502E093240297CF14
:10182000FE01EC01C3CF13821282D6CFFC010590DA
:10183000615070400110D8F7809590958E0F9F1FD2
:101840000895DC0101C06D9341505040E0F70895C8
:10185000FC016150704001900110D8F7809590957F
:101860008E0F9F1F08950F931F93CF93DF93182F11
:10187000092FEB018B8181FD09C01FEF0FEF812F35
:10188000902FDF91CF911F910F91089582FF14C087
:101890002E813F818C819D81281739073CF4E88196
:1018A000F981CF0101969983888310838E819F816E
:1018B00001969F838E83E3CFE885F985812F099573
:1018C000892BA1F3DACFFA01AA27283051F1203170
:1018D00081F1E8946F936E7F6E5F7F4F8F4F9F4FC4
:1018E000AF4FB1E03ED0B4E03CD0670F781F891F06
:1018F0009A1FA11D680F791F8A1F911DA11D6A0FD4
:10190000711D811D911DA11D20D009F468943F9186
:101910002AE0269F11243019305D3193DEF6CF0185
:101920000895462F4770405D4193B3E00FD0C9F74B
:10193000F6CF462F4F70405D4A3318F0495D31FDB8
:101940004052419302D0A9F7EACFB4E0A69597950B
:10195000879577956795BA95C9F7009761057105E1
:1019600008959B01AC010A2E06945795479537952B
:101970002795BA95C9F7620F731F841F951FA01D85
:101980000895052E97FB1EF400940E94D80C57FD75
:1019900007D00E942A0D07FC03D04EF40C94D80CFB
:1019A00050954095309521953F4F4F4F5F4F08958B
:1019B00090958095709561957F4F8F4F9F4F0895BB
:1019C0000E944C0DA59F900DB49F900DA49F800D7B
:1019D000911D11240895B7FF0C94E00C0E94E00CB7
:1019E000821B930B08952F923F924F925F926F92BA
:1019F0007F928F929F92AF92BF92CF92DF92EF929F
:101A0000FF920F931F93CF93DF93CDB7DEB7CA1B1F
:101A1000DB0B0FB6F894DEBF0FBECDBF09942A884A
:101A2000398848885F846E847D848C849B84AA84F2
:101A3000B984C884DF80EE80FD800C811B81AA817F
:101A4000B981CE0FD11D0FB6F894DEBF0FBECDBF4A
:101A5000ED010895A1E21A2EAA1BBB1BFD010DC0CA
:101A6000AA1FBB1FEE1FFF1FA217B307E407F5074E
:101A700020F0A21BB30BE40BF50B661F771F881F2A
:101A8000991F1A9469F760957095809590959B01C0
:101A9000AC01BD01CF010895A29FB001B39FC00169
:101AA000A39F700D811D1124911DB29F700D811D8A
:0A1AB0001124911D0895F894FFCF52
:101ABA000010010000000000280220005374617227
:101ACA0074696E67205352414D20746573742E2ECB
:101ADA002E0057726974652070686173652065729B
:101AEA00726F723A206578745F72616D5B25346437
:101AFA005D203D2025303258202873686F756C644C
:101B0A002062652025303258290A005265747269AC
:101B1A006576616C207068617365206572726F7298
:101B2A003A206578745F72616D5B2534645D203D8F
:101B3A002025303258202873686F756C64206265DE
:101B4A002025303258290A005352414D20746573BA
:101B5A007420636F6D706C6574656420776974684E
:101B6A00200A253464206572726F727320696E20B0
:101B7A00777269746520706861736520616E64208C
:101B8A000A253464206572726F727320696E20723E
:101B9A00657472696576616C2070686173650A0A9A
:101BAA000048656C6C6F00537461727420737069BD
:101BBA006C6C65742100486967682073636F72658D
:0E1BCA0000496E7374696C6C696E6765720019
:00000001FF
