:100000000C9460030C947D030C947D030C947D038D
:100010000C947D030C947D030C947D030C947D0360
:100020000C947D030C947D030C947D030C947D0350
:100030000C947D030C947D030C947D030C947D0340
:100040000C947D030C947D030C947D030C947D0330
:100050000C947D030C947D030C947D030C947D0320
:100060000C947D030C947D030C947D030C947D0310
:1000700000000000005C00000C000C007C287C28C4
:1000800058DC68002410480028542840000C000068
:10009000007884008478000054385400107C1000EC
:1000A00080400000101010000040000060100C00A4
:1000B00038543800487C40004864580044542C00B0
:1000C0001C107C005C5424003854240064140C0080
:1000D00068542C0048543800004800008048000054
:1000E0001028440028282800442810000454080040
:1000F00038445C00781478007C5428003844280088
:100100007C4438007C5444007C140400384474005F
:100110007C107C00447C440020403C007C106C003F
:100120007C4040007C187C0078103C00384438004B
:100130007C1408003844B8007C146800485424003B
:10014000047C04007C407C003C603C007C307C00F3
:100150006C106C000C700C0064544C00007C44006B
:100160000C106000447C00000804080080808000BF
:1001700000040800304878007C48300030484800CF
:1001800030487C00306850001078140090A8780047
:100190007C08700050744000808074007C106800FF
:1001A000447C4000781078007808700030483000B7
:1001B000F82810003048F80078100800505828003F
:1001C000083C4800384078003840380078207800F3
:1001D0004830480098A0780048685800107884009B
:1001E000007C00008478100008040804000000006F
:1001F0000000005F00000007000700147F147F1458
:10020000242A7F2A1223130864623649552250009B
:1002100005030000001C2241000041221C00082AA6
:100220001C2A0808083E080800503000000808088A
:100230000808006060000020100804023E51494593
:100240003E00427F400042615149462141454B31C9
:100250001814127F1027454545393C4A4949300159
:10026000710905033649494936064949291E0036B0
:100270003600000056360000000814224114141401
:10028000141441221408000201510906324979412F
:100290003E7E1111117E7F494949363E414141223E
:1002A0007F4141221C7F494949417F090901013EA3
:1002B000414151327F0808087F00417F41002040C2
:1002C000413F017F081422417F404040407F0204AB
:1002D000027F7F0408107F3E4141413E7F090909AA
:1002E000063E4151215E7F09192946464949493157
:1002F00001017F01013F4040403F1F2040201F7F00
:100300002018207F631408146303047804036151E8
:1003100049454300007F4141020408102041417FCC
:100320000000040201020440404040400001020479
:100330000020545454787F4844443838444444207E
:10034000384444487F3854545418087E0901020840
:100350001454543C7F0804047800447D400020403D
:10036000443D00007F10284400417F40007C041879
:1003700004787C0804047838444444387C14141409
:1003800008081414187C7C080404084854545420A9
:10039000043F4440203C4040207C1C2040201C3C2A
:1003A0004030403C44281028440C5050503C446499
:1003B000544C44000836410000007F0000004136E4
:1003C000080002010302010000000000000000001C
:1003D000065F5F0600000000070700070700001423
:1003E0007F7F147F7F1400242E6B6B3A120000462F
:1003F0006630180C666200307A4F5D377A48000428
:1004000007030000000000001C3E634100000000E4
:1004100041633E1C000000082A3E1C1C3E2A0808BE
:10042000083E3E0808000000A0E060000000000850
:100430000808080808000000006060000000006074
:1004400030180C060301003E7F594D7F3E000042EC
:10045000427F7F40400000627359496F660000226E
:100460006349497F360000181C16137F7F10002750
:100470006745457D3900003C7E4B497930000003DB
:100480006371190F070000367F49497F3600000667
:100490004F49693F1E000000006C6C000000000026
:1004A000A0EC6C00000000081C3663410000001442
:1004B00014141414140000004163361C08000002D8
:1004C0000351590F0600003E7F415D5D1F1E007CF9
:1004D0007E13137E7C0000417F7F49497F36001CDC
:1004E0003E634141632200417F7F41637F1C0041A5
:1004F0007F7F495D416300417F7F491D0103001CEF
:100500003E6341517372007F7F08087F7F000000C7
:10051000417F7F41000000307040417F3F0100413A
:100520007F7F081C776300417F7F41406070007FC0
:100530007F060C067F7F007F7F060C187F7F001CE4
:100540003E6341633E1C00417F7F49090F06001E48
:100550003F21717F5E0000417F7F19396F46002681
:10056000674D597B32000003417F7F410300007FCC
:100570007F40407F7F00001F3F60603F1F00007F83
:100580007F3018307F7F0063771C081C776300077B
:100590004F78784F0700006773594D47637100002B
:1005A0007F7F41410000000103060C18306000000D
:1005B00041417F7F000000080C0603060C08008004
:1005C000808080808080800000030704000000207D
:1005D0007454543C784000413F7F44447C38003898
:1005E0007C44446C280000307848493F7F40003804
:1005F0007C54545C180000487E7F49030200009838
:10060000BCA4A4F87C0400417F7F08047C7800002F
:10061000447D7D4000000040C484FD7D0000004119
:100620007F7F10386C440000417F7F400000007CD9
:100630007C0C180C7C78007C7C04047C78000038EE
:100640007C44447C38000084FCF8A4243C18001846
:100650003C24A4F8FC8400447C78441C1800004826
:100660005C54547424000000043E7F442400003C89
:100670007C40403C7C40001C3C60603C1C00003CDA
:100680007C6030607C3C00446C3810386C44009CCA
:10069000BCA0A0FC7C00004C64745C4C64000008AE
:1006A000083E7741410000000000777700000041DC
:1006B00041773E0808000002030103020301000025
:1006C00011241FBECFEFD4E0DEBFCDBF12E0A0E00B
:1006D000B1E0EAEFFEE102C005900D92A23FB10742
:1006E000D9F722E0A2EFB2E001C01D92AC3FB20701
:1006F000E1F70E947F030C947B0F0C940000CDB7B0
:10070000DEB76E970FB6F894DEBF0FBECDBF8FEF8A
:1007100084BB8FE190E00E9400040E94A9050E9422
:1007200059060E94A8040E9414090E94E20680E073
:100730000E940E0764E174E08FE094E00E947C0A5E
:1007400085B7806885BFCE0101960E94BF048BE00B
:10075000ECE0F1E0DE01199601900D928A95E1F747
:100760000F2EF7E1EF2EF1E0FF2EF02D01E411E066
:10077000CE0109960E9452098FEF9FE20197F1F78F
:1007800000C00000CE0144960E9495098E851F92FC
:100790008F938D851F928F938C851F928F938B855E
:1007A0001F928F938A858F9389858F93FF92EF9203
:1007B0000E94C60A898D1F928F93888D1F928F93F6
:1007C0008F891F928F938E891F928F938D898F931C
:1007D0008C898F931F930F930E94C60A8C858F5F1D
:1007E0008C879FEF2FEF8EE0915020408040E1F703
:1007F00000C000000FB6F894DEBF0FBECDBFB8CF6B
:1008000090BD89B988E18AB98EE880BD08955D9B65
:10081000FECF8CB908955F9BFECF8CB108950E94E6
:10082000070480E090E008950E940B0490E0089592
:10083000CF92DF92EF92FF920F931F93CF93DF93AC
:100840008FE691E00E94DC0A0E946C0AC82ED92E25
:100850000E94710A00E010E0C0E0D0E00F2EF5E841
:10086000EF2EF1E0FF2EF02D06C00F5F1F4F011598
:1008700098E01907F9F00E946C0A282F392FF80127
:10088000F85E80834081481781F333273F932F938D
:100890001F924F931F930F93FF92EF920E94C60AED
:1008A00021968DB79EB708960FB6F8949EBF0FBEDF
:1008B0008DBFDBCF8C2D9D2D0E94710AC12CD12CB8
:1008C00000E010E00F2EFEEBEF2EF1E0FF2EF02DFA
:1008D00007C09FEFC91AD90AC11488E0D806F9F0F9
:1008E0000E946C0A282F392FF601F85E808182174A
:1008F00081F333273F932F931F928F93DF92CF92F1
:10090000FF92EF920E94C60A0F5F1F4F8DB79EB7EE
:1009100008960FB6F8949EBF0FBE8DBFDACF1F9317
:100920000F93DF93CF938BEF91E09F938F930E9470
:10093000C60A0F900F900F900F900F900F90DF91BD
:10094000CF911F910F91FF90EF90DF90CF9008957E
:100950008D9A80E48FBD89E08EBD81E090E09BBDE3
:100960008ABD0895E0910001F091010181E080834A
:100970008FEF9FE20197F1F700C000000895CF9339
:10098000DF93C82FD92F0E94B204E0910001F091AB
:10099000010180818D8380818C8380818F83808120
:1009A0008F83DF91CF9108950F931F93CF93DF93A0
:1009B000C82FD92F0E94B204E0910001F0910101EB
:1009C00020816D81261708F459C0261B330B44E69D
:1009D000429FC001439F900D112424EF30E0A901F4
:1009E000461B5109BA010E94F80965360CF453C040
:1009F00084E68983E0910001F091010120816C81FE
:100A0000261708F44FC0261B330B44E6429FC00153
:100A1000439F900D112425EF30E0D901A61BB109A9
:100A2000BD010E94F80965360CF449C084E688834C
:100A30000091000110910101F80120812F57330B23
:100A400044E6429FC001439F900D1124EFE7F0E080
:100A5000BF010E94F8096B83D8012C912F57330BEB
:100A6000429FC001439F900D1124BF010E94F809CD
:100A70006A83DF91CF911F910F910895261B330B4D
:100A800044E6429FC001439F900D11246654770BAA
:100A90000E94F809AACF6C391CF48CE98983AACF8B
:100AA0006983A8CF261B330B44E6429FC001439FB6
:100AB000900D11246F53770B0E94F809B4CF6C3955
:100AC0001CF48CE98883B4CF6883B2CF0F931F9353
:100AD000CF93DF93CDB7DEB728970FB6F894DEBF7C
:100AE0000FBECDBFE02FF12F822F27FD21952B3098
:100AF000C8F4832F87FD81958B30F0F0832F330F5F
:100B0000990B97FB992790F980E090838183289631
:100B10000FB6F894DEBF0FBECDBFDF91CF911F910E
:100B20000F910895932F97FD9195921738F781159E
:100B300034F093E080E0E9CF94E080E0E6CF92E00B
:100B400080E0E3CFBB988827B39B8395B39BFECF10
:100B5000089582B38C6182BB81B38C6181BB87B302
:100B6000806B87BBBE988DB181658DB90895282FA4
:100B7000392F82B38C6182BB2130310539F02230AC
:100B8000310531F0232B29F4929808959398089514
:100B90009498089582B38C6182BB08958FB9779B36
:100BA000FECF08951FB8779BFECF8FB108950F93A6
:100BB0001F93CF93DF93082F192F862F972F00971E
:100BC00049F0E801080F191F89910E94CE05C0174E
:100BD000D107D1F7DF91CF911F910F9108950F9316
:100BE0001F93CF93DF93082F192F862F972F0097EE
:100BF00049F0E801080F191F0E94D2058993C01718
:100C0000D107D1F7DF91CF911F910F910895CF9325
:100C1000C82FC29880E090E00E94B7058C2F0E94F8
:100C2000CE050E94CA05CF910895CF93C82FC29ACE
:100C300080E090E00E94B7058C2F0E94CE050E94B4
:100C4000CA05CF91089580550E9407060895CF9355
:100C5000C82F8F700E9407068C2F82958F70805F3F
:100C60000E940706CF910895CF93DF930E94230639
:100C700080E00E942706C0E8D0E080E00E941506D0
:100C800021972097D1F7DF91CF910895CF93DF93EC
:100C900080E00E94270680E00E942306C0E0D4E0A6
:100CA00080E00E94150621972097D1F7DF91CF9120
:100CB0000895BA9A81EA0E94070688EC0E94070606
:100CC0008FEA0E94070680E20E94070680E00E94E9
:100CD00007060E9446060895CF93C82F862F0E94CC
:100CE00027068C2F0E942306CF9108950F931F9300
:100CF000CF93DF93262F372F805221303105D9F043
:100D00002230310581F1232B89F4C82FD0E0CC0F9C
:100D1000DD1FCC0FDD1FC059DF4F14E0FE018491B1
:100D20000E941506115021961111F8CFDF91CF9135
:100D30001F910F910895C82FD0E0CE01880F991F01
:100D4000880F991FC80FD91FC451DE4F15E0FE014F
:100D500084910E941506115021961111F8CF80E060
:100D60000E941506E3CFC82FD0E0CC0FDD1FCC0FBB
:100D7000DD1FCC0FDD1F8E0109531C4FC153DC4F0B
:100D8000F80184910E9415060F5F1F4F0C171D0775
:100D9000B9F7CCCF0F931F93CF93DF93C82FD92FE1
:100DA000162F072F8881811541F02196612F702F12
:100DB0000E94760689918111F9CFDF91CF911F9121
:100DC0000F910895CF93DF9300D000D000D0CDB71E
:100DD000DEB76DE283E00E946C0686E0E4E5F2E0B7
:100DE000DE01119601900D928A95E1F762E070E0C4
:100DF000CE0101960E94CA062FEF8FEF9CE2215090
:100E000080409040E1F700C000C00F900F900F901D
:100E10000F900F900F90DF91CF9108951F93CF9374
:100E2000DF93CDB7DEB7AA970FB6F894DEBF0FBE3B
:100E3000CDBF182F0E94460660E0812F0E946C06ED
:100E40008DE29EE39A8389831B8261E070E0CE018C
:100E500001960E94CA0664E180E00E946C068FE061
:100E6000EAE5F2E0DE01149601900D928A95E1F731
:100E700061E070E0CE0104960E94CA0664E181E060
:100E80000E946C068BE0E9E6F2E0DE0153960190E9
:100E90000D928A95E1F761E070E0CE0143960E94E1
:100EA000CA0664E182E00E946C068DE0E4E7F2E0AD
:100EB000DE015E9601900D928A95E1F761E070E0A7
:100EC000CE014E960E94CA06AA960FB6F894DEBFCF
:100ED0000FBECDBFDF91CF911F910895CF92DF92CA
:100EE000EF92FF920F931F93CF93DF93E82EF92E8B
:100EF000C62ED72EC42FD52FF90180819181892B41
:100F000079F5F701808191818430910549F101974C
:100F100081F1F70180819181892B11F5F6018081A2
:100F20008115F1F081508083F701808191810497D0
:100F300099F0CE010E94D4048701288139814A8129
:100F40005B816C817D818E819F810E946605F701A6
:100F500080819181049769F7F60180810E940E07D4
:100F6000DF91CF911F910F91FF90EF90DF90CF9085
:100F70000895F6018081823098F78F5F8083F701B2
:100F800080819181049799F0CE010E94D404870159
:100F9000288139814A815B816C817D818E819F812D
:100FA0000E946605F70180819181049769F7F60137
:100FB00080810E940E07ADCFAF92BF92CF92DF9299
:100FC000EF92FF920F931F93CF93DF93E82EF92EAA
:100FD000C62ED72EC42FD52FA22EB32ECE010E94FF
:100FE000D4040E2D1F2D288139814A815B816C81AB
:100FF0007D818E819F810E9466052A2D3B2DAE0149
:101000006C2D7D2D8E2D9F2D0E946E07DF91CF912F
:101010001F910F91FF90EF90DF90CF90BF90AF9016
:101020000895EF92FF920F931F93CF93DF93CDB765
:10103000DEB765970FB6F894DEBF0FBECDBF082FA1
:10104000192F842F952FE22EF32EF8012081318164
:101050002230310509F459C0B0F4232BF9F098017E
:10106000462F572FB7010E94DC070E94A205811569
:1010700009F451C080E00E940E07F7011082F801C8
:101080001182108248C02330310509F044C0980114
:10109000462F572FB7010E94DC073DC09801462F0D
:1010A000572FB7010E94DC070E94A205811599F114
:1010B000F7018081811541F0813009F183E090E0F2
:1010C000F8019183808327C00E94460664E184E092
:1010D0000E946C0685E1E1E8F2E0DE0111960190E4
:1010E0000D928A95E1F762E070E0CE0101960E94D0
:1010F000CA0681E090E0F801918380830CC082E011
:1011000090E0F8019183808306C09801462F572F05
:10111000B7010E94DC0765960FB6F894DEBF0FBEDC
:10112000CDBFDF91CF911F910F91FF90EF90089568
:1011300082E090E00E94B70580EC0E94CE050E94FC
:10114000CA058CEC94E00197F1F700C00000089507
:10115000CF93C82F82E090E00E94B70583E00E9401
:10116000CE058C2F0E94CE050E94D205C82F0E946A
:10117000CA058C2FCF910895CF93DF93D82FC62F18
:1011800082E090E00E94B70582E00E94CE058D2F9C
:101190000E94CE058C2F0E94CE050E94CA05DF91C9
:1011A000CF910895CF93C82F82E090E00E94B705B9
:1011B00081E090E002C0880F991FCA95E2F780682D
:1011C0000E94CE050E94CA05CF910895CF9382E078
:1011D00090E00E94B70580EA0E94CE050E94D205E9
:1011E000C82F0E94D2050E94CA058C2FCF91089566
:1011F0001F93CF93DF93182FD62FC42F82E090E058
:101200000E94B70585E00E94CE05812F0E94CE0581
:101210008D2F0E94CE058C2F0E94CE050E94CA05FC
:10122000DF91CF911F9108950E9498088EE00E944F
:10123000A808982F907E903871F01F928F9386E9BE
:1012400092E09F938F930E94C60A0F900F900F9089
:101250000F9081E0089563E08AE20E94BC086AEA88
:1012600089E20E94BC0865E088E20E94BC0860E454
:101270008FE00E94BC088EE00E94A808982F907E04
:10128000903411F480E008951F928F9386EC92E0E1
:101290009F938F930E94C60A0F900F900F900F900C
:1012A00081E00895EF92FF920F931F93CF93E82E62
:1012B000F92E80E30E94A808C82FC87083FDF9CFDB
:1012C000F70160817181769567957695679576953A
:1012D000679581E30E94BC08F70160816295660F03
:1012E000607E82E30E94BC08F701628185E30E9470
:1012F000BC08F7018281811579F087010D5F1F4FCE
:10130000F80161918F0186E38C0F0E94BC08CF5FCA
:10131000F7018281C817A0F380E00E94D208CF9124
:101320001F910F91FF90EF900895AF92BF92CF92CF
:10133000DF92EF92FF920F931F93CF93DF93CDB77E
:10134000DEB72B970FB6F894DEBF0FBECDBFA82E29
:10135000B92E81E60E94A808C82E82E60E94A8083D
:10136000D12CCC0CDD1CCC0CDD1CCC0CDD1C8295F6
:1013700086958770C82A85E60E94A8088F70082F76
:10138000893008F008E0811579F07E0184E0E80EEC
:10139000F11C10E086E6810F0E94A808F7018193F6
:1013A0007F011F5F1017B0F340E061E08CE20E9404
:1013B000F808DA82C9820B838BE0FE013196AA2DF0
:1013C000BB2D01900D928A95E1F78A2D9B2D2B96CE
:1013D0000FB6F894DEBF0FBECDBFDF91CF911F9146
:1013E0000F91FF90EF90DF90CF90BF90AF90089556
:1013F00097FB072E16F4009407D077FD09D00E94C2
:101400000C0A07FC05D03EF4909581959F4F0895F6
:10141000709561957F4F0895AA1BBB1B51E107C0D2
:10142000AA1FBB1FA617B70710F0A61BB70B881F74
:10143000991F5A95A9F780959095BC01CD01089503
:101440008F929F92AF92BF92CF92DF92EF92FF92D4
:10145000CF93DF93EC01688179818A819B8161154B
:1014600071058105910521F464E279ED8BE597E042
:101470002DE133EF41E050E00E94E10E49015A01B5
:101480009B01AC01A7EAB1E40E94000F6B017C0153
:10149000ACEEB4EFA50194010E940E0FDC01CB016C
:1014A0008C0D9D1DAE1DBF1DB7FF03C00197A10987
:1014B000B04888839983AA83BB839F77DF91CF91BC
:1014C000FF90EF90DF90CF90BF90AF909F908F9064
:1014D00008950E94200A089582E091E00E94200A67
:1014E0000895A0E0B0E08093020190930301A093DF
:1014F0000401B093050108950F931F93CF93DF93D9
:10150000EC018B01892B51F4672B41F4E0E0F0E012
:10151000CF01DF91CF911F910F9108956EE070E0A0
:1015200081E090E00E94F30CFC01892B79F380E8C4
:1015300083830115110571F01387028781E8838386
:101540008091F2029091F302892B21F4F093F3023F
:10155000E093F2022097E1F2D187C0878381826015
:1015600083838091F4029091F502892B89F6F093A0
:10157000F502E093F4028091F6029091F702892B34
:1015800039F6F093F702E093F602C2CFA0E0B0E0A4
:10159000ECECFAE00C94230FAE014B5F5F4FFA01C5
:1015A00061917191AF018091F4029091F5020E94D6
:1015B000080BE2E00C943F0F0F931F93CF93DF9340
:1015C000E091F402F091F502238100E010E021FDAA
:1015D0000EC00FEF1FEFC801DF91CF911F910F9148
:1015E00008950995892B11F00FEF1FEFCE01EC0143
:1015F00089916091F4027091F502DB011896ED91EA
:10160000FC918111EECF8AE00995892B21F3E1CF7E
:10161000ABE0B0E0EEE0FBE00C94160F6C017B0158
:101620008A01FC0117821682838181FFD9C19AE069
:10163000592EF6012381F70123FD859123FF819126
:101640007F01811509F41FC1853239F423FD95917D
:1016500023FF91917F01953229F4B60190E00E9419
:10166000530EE7CF30E0912C612C712CF0E27F1605
:1016700040F59B32D9F058F49032D1F09332F1F02A
:101680009E3299F576FCFFC0689476F806C09D32CC
:1016900091F09033C1F4689470F8F70123FD9591AF
:1016A00023FF91917F019111E1CF29C0689471F8D6
:1016B000689472F8F2CF689473F8EFCF689474F876
:1016C000ECCF77FC1CC080ED890F8A30C8F676FE1F
:1016D00005C0959C800D1124982EDFCF659C800D50
:1016E0001124682E689475F8D8CF9C3619F4689444
:1016F00077F8D3CF9C3409F44BC0983671F2892F18
:101700008F7D8554833008F445C0933609F466C054
:10171000933709F469C0933509F475C0943619F00C
:10172000993609F09FC0F80177FE95C061917191DB
:10173000819191918F01272D2F76822E97FF09C0DD
:1017400090958095709561957F4F8F4F9F4F6894CE
:1017500087F82AE030E0AE014F5F5F4F5A010E94E8
:10176000830E8A19A82E86FEC4C0882D8E7FA914E8
:1017700008F0BEC084FE11C182FC05C1F82DFE7EBA
:101780008F2EB92C882D8678811509F4BFC000C131
:1017900031E083CF3115F9F0085F1F4F8FE3898364
:1017A00088248394912CAE014F5F5F4F5A01E894D7
:1017B00077F873FC03C086149104B0F1811491048E
:1017C000D1F5611409F435CFB60180E290E00E94B2
:1017D000530E6A94F6CF0C5F1F4FE0CFF801808163
:1017E00089830E5F1F4FDCCFF801A190B1908F016C
:1017F000692D70E076FC02C06FEF7FEFC5010E949B
:10180000480E4C01D4CFF801A190B1908F01692D01
:1018100070E076FC02C06FEF7FEFC5010E94360ECC
:101820004C01689477F8C5CFB60180E290E00E9441
:10183000530E6A94C0CFF50177FC859177FE8191B4
:101840005F01B60190E00E94530E61106A94F1E0CE
:101850008F1A9108B3CF61917191072E000C880BFC
:10186000990B68CF872CE89484F82AE030E095370C
:1018700039F1572D597F852E903799F058F49835C6
:10188000A9F09F36D9F0F601868197812B96EFE07B
:101890000C94320F9837B9F774FC05C020E130E0A2
:1018A0000FC0689484F8689482F8F8CF74FE03C07F
:1018B000872D8660882E20E132E002C028E030E0EB
:1018C000F80187FE10C061917191819191918F0112
:1018D000FE0131965F01AF010E94830E8A19A82E86
:1018E000E89487F840CF6191719180E090E0EFCF6C
:1018F000882EBA2C84FE46CFFE01EA0DF11D8081B0
:10190000803309F043C0282D297E822E83FC0EC02F
:1019100080FE4FC09A2CB61418F4960C9B18B62C67
:10192000862D8B196B1408F480E0B80EB61408F0FD
:1019300042C06B1884FE41C0B60180E390E00E9473
:10194000530E82FE09C088E590E081FC02C088E762
:1019500090E0B6010E94530EA914D8F1AA94B12CBC
:101960004FEFA41AB40ACE0101964C01A80EB91E7D
:10197000F50182915F01B60190E00E94530E8A1436
:101980009B04B1F71ECFB92C882EB6CF82FC02C0C3
:10199000B394BCCFB394B394B9CFB92C882EF2CE04
:1019A000B60180E290E00E94530E73947614C0F367
:1019B000B7CF7B2CFBCF612CBDCF882D86788115CE
:1019C00059F280E281FC8BE287FC8DE2B60190E067
:1019D000C1CFB60180E390E00E94530E9A94BCCF31
:1019E0008FEF9FEF53CF0F931F93CF93DF93869F7C
:1019F0008001879F100D969F100D1124C8010E9431
:101A00000F0DEC01009729F0A80160E070E00E9442
:101A1000410ECE01DF91CF911F910F9108950F9349
:101A20001F93CF93DF939C01029710F422E030E0E4
:101A3000E091F802F091F90280E090E0A0E0B0E0DF
:101A4000309791F4009709F448C0821B930B8430BF
:101A50009105D0F58A819B816115710581F1FB01AA
:101A600093838283FE0111C04081518102811381E1
:101A700042175307D8F04217530799F4109761F0B3
:101A800012960C93129713961C933296CF01DF9106
:101A9000CF911F910F9108950093F8021093F902CE
:101AA000F4CF009751F04817590738F0AC01DB012B
:101AB000CA01BD01DF01F801C3CFEF01F9CF909357
:101AC000F9028093F802CECFFE01E80FF91F2193AF
:101AD0003193029799838883D9CF4091FA0250912C
:101AE000FB024115510541F4409108015091090153
:101AF0005093FB024093FA028091060190910701F6
:101B0000009741F48DB79EB760910A0170910B0167
:101B1000861B970B4817590708F0B8CF841B950B05
:101B20008217930708F4B2CFB9016E5F7F4F861713
:101B3000970708F4ABCF640F751F7093FB02609397
:101B4000FA02FA0121933193A1CFCF93DF939C0145
:101B50000097E9F0FC01329713821282C091F802DB
:101B6000D091F902DE0180E090E02097A1F480811D
:101B70009181280F391F8091FA029091FB02821700
:101B8000930709F068C0F093FB02E093FA02DF913B
:101B9000CF910895DA01AE17BF0708F042C0129640
:101BA0004D915C911397CD014115510599F7DC01D9
:101BB0001396FC93EE9312974D915D919D01240F26
:101BC000351FE217F30781F4208131812E5F3F4FEB
:101BD000240F351FDC0111963C932E932281338113
:101BE00013963C932E931297E0E0F0E08A819B815C
:101BF0000097B1F5DE018D919D918A0F9B1F209179
:101C0000FA023091FB022817390709F6309759F587
:101C10001092F9021092F802D093FB02C093FA02DC
:101C2000B6CFB383A28340815181240F351FA21701
:101C3000B30771F44E5F5F4F2D913C911197240FC4
:101C4000351F3183208312962D913C91338322835B
:101C5000009709F0ACCFF093F902E093F80297CF28
:101C6000FE01EC01C3CF13821282D6CFFC01059096
:101C7000615070400110D8F7809590958E0F9F1F8E
:101C80000895DC0101C06D9341505040E0F7089584
:101C9000FC016150704001900110D8F7809590953B
:101CA0008E0F9F1F08950F931F93CF93DF93182FCD
:101CB000092FEB018B8181FD09C01FEF0FEF812FF1
:101CC000902FDF91CF911F910F91089582FF14C043
:101CD0002E813F818C819D81281739073CF4E88152
:101CE000F981CF0101969983888310838E819F812A
:101CF00001969F838E83E3CFE885F985812F09952F
:101D0000892BA1F3DACFFA01AA27283051F120312B
:101D100081F1E8946F936E7F6E5F7F4F8F4F9F4F7F
:101D2000AF4FB1E03ED0B4E03CD0670F781F891FC1
:101D30009A1FA11D680F791F8A1F911DA11D6A0F8F
:101D4000711D811D911DA11D20D009F468943F9142
:101D50002AE0269F11243019305D3193DEF6CF0141
:101D60000895462F4770405D4193B3E00FD0C9F707
:101D7000F6CF462F4F70405D4A3318F0495D31FD74
:101D80004052419302D0A9F7EACFB4E0A6959795C7
:101D9000879577956795BA95C9F70097610571059D
:101DA00008959B01AC010A2E0694579547953795E7
:101DB0002795BA95C9F7620F731F841F951FA01D41
:101DC0000895052E97FB1EF400940E94F80E57FD0F
:101DD00007D00E944A0F07FC03D04EF40C94F80E73
:101DE00050954095309521953F4F4F4F5F4F089547
:101DF00090958095709561957F4F8F4F9F4F089577
:101E00000E946C0FA59F900DB49F900DA49F800D14
:101E1000911D11240895B7FF0C94000F0E94000F2C
:101E2000821B930B08952F923F924F925F926F9275
:101E30007F928F929F92AF92BF92CF92DF92EF925A
:101E4000FF920F931F93CF93DF93CDB7DEB7CA1BDB
:101E5000DB0B0FB6F894DEBF0FBECDBF09942A8806
:101E6000398848885F846E847D848C849B84AA84AE
:101E7000B984C884DF80EE80FD800C811B81AA813B
:101E8000B981CE0FD11D0FB6F894DEBF0FBECDBF06
:101E9000ED010895A1E21A2EAA1BBB1BFD010DC086
:101EA000AA1FBB1FEE1FFF1FA217B307E407F5070A
:101EB00020F0A21BB30BE40BF50B661F771F881FE6
:101EC000991F1A9469F760957095809590959B017C
:101ED000AC01BD01CF010895A29FB001B39FC00125
:101EE000A39F700D811D1124911DB29F700D811D46
:0A1EF0001124911D0895F894FFCF0E
:101EFA000010010000000000FC022000230103AAD8
:101F0A00BBCC000000000073656E743A2069643D22
:101F1A0025303358206C656E3D25642064617461F8
:101F2A003D25303258202530325820253032580A83
:101F3A000072656365757665643A2069643D25308B
:101F4A003358206C656E3D256420646174613D25BB
:101F5A00303258202530325820253032580A005362
:101F6A0074617274696E67205352414D20746573AF
:101F7A00742E2E2E0057726974652070686173651D
:101F8A00206572726F723A206578745F72616D5B58
:101F9A002534645D203D2025303258202873686F2F
:101FAA00756C642062652025303258290A00526512
:101FBA007472696576616C207068617365206572F8
:101FCA00726F723A206578745F72616D5B25346452
:101FDA005D203D2025303258202873686F756C6467
:101FEA002062652025303258290A005352414D207B
:101FFA007465737420636F6D706C657465642077A3
:10200A00697468200A253464206572726F727320BD
:10201A00696E2077726974652070686173652061E2
:10202A006E64200A253464206572726F72732069A7
:10203A006E2072657472696576616C20706861736E
:10204A00650A0A0048656C6C6F00537461727420EB
:10205A007370696C6C6574210048696768207363E2
:10206A006F726500496E7374696C6C696E6765722C
:10207A00004865726520796F752077696C6C2070ED
:10208A006C61793A2900436F6E666967757261748B
:10209A00696F6E206D6F6465206E6F74207365744E
:1020AA002E2043414E535441542069733A203078CC
:1020BA00253032580A004C6F6F706261636B206D75
:1020CA006F6465206E6F74207365742E2043414ED1
:1020DA00535441542069733A203078253032580AD3
:0220EA000000F4
:00000001FF
