:100000000C9438000C9455000C9455000C94550039
:100010000C9455000C9455000C9455000C9455000C
:100020000C9455000C9455000C9455000C945500FC
:100030000C9455000C9455000C9455000C945500EC
:100040000C9455000C9455000C9455000C945500DC
:100050000C9455000C9455000C9455000C945500CC
:100060000C9455000C9455000C9455000C945500BC
:1000700011241FBECFEFD4E0DEBFCDBF12E0A0E061
:10008000B1E0ECECFFE002C005900D92A032B107A8
:10009000D9F722E0A0E2B2E001C01D92AA32B20775
:1000A000E1F70E9457000C94E4070C940000CDB7D0
:1000B000DEB728970FB6F894DEBF0FBECDBF8FEF27
:1000C00084BB8FE190E00E94C3000E946B0167ED4A
:1000D00070E082ED90E00E94E50285B7806885BF00
:1000E0009E01295F3F4FAE01485F5F4FBE016A5FCF
:1000F0007F4FCE0105960E9482010F2EFCE08F2ECD
:10010000F1E09F2EF02DA884CF80EE800D819E011E
:100110002C5F3F4FAE014D5F5F4FBE016F5F7F4F62
:10012000CE0102960E94B8018C81282F082E000C67
:10013000330B3F938F938B81282F082E000C330BAA
:100140003F938F938A81282F082E000C330B3F9307
:100150008F938981282F082E000C330B3F938F93A8
:100160009F928F920E942F032FEF8FEF92E02150EA
:1001700080409040E1F700C000C00FB6F894DEBFA9
:100180000FBECDBFC0CF90BD89B988E18AB98EE8D6
:1001900080BD08955D9BFECF8CB908955F9BFECF17
:1001A0008CB108950E94CA0080E090E008950E94FA
:1001B000CE0090E00895CF92DF92EF92FF920F93DE
:1001C0001F93CF93DF938AE391E00E9445030E943F
:1001D000D502C82ED92E0E94DA0200E010E0C0E05D
:1001E000D0E00F2EF0E5EF2EF1E0FF2EF02D06C04F
:1001F0000F5F1F4F011598E01907F9F00E94D50213
:10020000282F392FF801F85E80834081481781F349
:1002100033273F932F931F924F931F930F93FF9278
:10022000EF920E942F0321968DB79EB708960FB6C6
:10023000F8949EBF0FBE8DBFDBCF8C2D9D2D0E94ED
:10024000DA02C12CD12C00E010E00F2EF9E8EF2EDD
:10025000F1E0FF2EF02D07C09FEFC91AD90AC11493
:1002600088E0D806F9F00E94D502282F392FF60130
:10027000F85E8081821781F333273F932F931F927B
:100280008F93DF92CF92FF92EF920E942F030F5F26
:100290001F4F8DB79EB708960FB6F8949EBF0FBE3E
:1002A0008DBFDACF1F930F93DF93CF9386EC91E04E
:1002B0009F938F930E942F030F900F900F900F909A
:1002C0000F900F90DF91CF911F910F91FF90EF90C2
:1002D000DF90CF9008958D9A80E48FBD89E08EBD28
:1002E00081E090E09BBD8ABD0895E0910001F0910E
:1002F000010181E080838FEF9FE20197F1F700C059
:1003000000000895CF92DF92EF92FF920F931F9318
:10031000CF93DF93E82EF92EC62ED72E042F152F5C
:10032000C22FD32F0E947501E0910001F0910101CD
:100330008081F6018083E0910001F09101018081CC
:10034000F7018083E0910001F09101018081F801C3
:100350008083E0910001F091010180818883DF9129
:10036000CF911F910F91FF90EF90DF90CF90089564
:100370008F929F92AF92BF92CF92DF92EF920F93A4
:10038000CF93DF93882E992EC62FD72FC42ED52E2C
:10039000A22EB32E0E947501E0910001F09101019F
:1003A00020812E1508F45FC02E19330B44E6429FBE
:1003B000C001439F900D112464EF70E06E19710924
:1003C0000E94610265360CF45DC084E6D4018C9312
:1003D000E0910001F09101012081201708F45BC039
:1003E000201B330B44E6429FC001439F900D112414
:1003F00065EF70E0601B71090E94610265360CF4C4
:1004000059C084E68883E0910001F09101012081C8
:100410002F57330B44E6429FC001439F900D112498
:10042000EFE7F0E0BF010E946102D5016C93A0915B
:100430000001B09101012C912F57330B429FC00155
:10044000439F900D1124BF010E946102F601608359
:10045000DF91CF910F91EF90DF90CF90BF90AF9051
:100460009F908F9008952E19330B44E6429FC00150
:10047000439F900D11242E2D2654330BB9010E9459
:100480006102A0CF6C3924F48CE9D4018C93A0CF05
:10049000F40160839DCF201B330B44E6429FC001D3
:1004A000439F900D1124E02FEF53FF0BBF010E94DB
:1004B0006102A4CF6C391CF48CE98883A4CF6883D3
:1004C000A2CF97FB072E16F4009407D077FD09D032
:1004D0000E94750207FC05D03EF4909581959F4FD0
:1004E0000895709561957F4F0895AA1BBB1B51E13C
:1004F00007C0AA1FBB1FA617B70710F0A61BB70B94
:10050000881F991F5A95A9F780959095BC01CD0138
:1005100008958F929F92AF92BF92CF92DF92EF9207
:10052000FF92CF93DF93EC01688179818A819B816F
:10053000611571058105910521F464E279ED8BE582
:1005400097E02DE133EF41E050E00E944A07490176
:100550005A019B01AC01A7EAB1E40E9469076B0153
:100560007C01ACEEB4EFA50194010E947707DC0199
:10057000CB018C0D9D1DAE1DBF1DB7FF03C00197A4
:10058000A109B04888839983AA83BB839F77DF91B1
:10059000CF91FF90EF90DF90CF90BF90AF909F9062
:1005A0008F9008950E948902089582E091E00E9450
:1005B00089020895A0E0B0E08093020190930301C6
:1005C000A0930401B093050108950F931F93CF9357
:1005D000DF93EC018B01892B51F4672B41F4E0E0B0
:1005E000F0E0CF01DF91CF911F910F9108956EE060
:1005F00070E081E090E00E945C05FC01892B79F3BA
:1006000080E883830115110571F01387028781E863
:1006100083838091200290912102892B21F4F09311
:100620002102E09320022097E1F2D187C0878381E5
:10063000826083838091220290912302892B89F624
:10064000F0932302E09322028091240290912502EC
:10065000892B39F6F0932502E0932402C2CFA0E063
:10066000B0E0E5E3F3E00C948C07AE014B5F5F4F25
:10067000FA0161917191AF01809122029091230260
:100680000E947103E2E00C94A8070F931F93CF938D
:10069000DF93E0912202F0912302238100E010E039
:1006A00021FD0EC00FEF1FEFC801DF91CF911F9109
:1006B0000F9108950995892B11F00FEF1FEFCE01CF
:1006C000EC0189916091220270912302DB0118965E
:1006D000ED91FC918111EECF8AE00995892B21F3F0
:1006E000E1CFABE0B0E0E7E7F3E00C947F076C010B
:1006F0007B018A01FC0117821682838181FFD9C1A7
:100700009AE0592EF6012381F70123FD859123FFFD
:1007100081917F01811509F41FC1853239F423FDD0
:10072000959123FF91917F01953229F4B60190E0D4
:100730000E94BC06E7CF30E0912C612C712CF0E2D6
:100740007F1640F59B32D9F058F49032D1F09332B5
:10075000F1F09E3299F576FCFFC0689476F806C0F9
:100760009D3291F09033C1F4689470F8F70123FD45
:10077000959123FF91917F019111E1CF29C0689458
:1007800071F8689472F8F2CF689473F8EFCF6894B8
:1007900074F8ECCF77FC1CC080ED890F8A30C8F666
:1007A00076FE05C0959C800D1124982EDFCF659CA8
:1007B000800D1124682E689475F8D8CF9C3619F4F2
:1007C000689477F8D3CF9C3409F44BC0983671F213
:1007D000892F8F7D8554833008F445C0933609F402
:1007E00066C0933709F469C0933509F475C094362F
:1007F00019F0993609F09FC0F80177FE95C0619114
:100800007191819191918F01272D2F76822E97FFE3
:1008100009C090958095709561957F4F8F4F9F4F40
:10082000689487F82AE030E0AE014F5F5F4F5A01CD
:100830000E94EC068A19A82E86FEC4C0882D8E7FE1
:10084000A91408F0BEC084FE11C182FC05C1F82DB8
:10085000FE7E8F2EB92C882D8678811509F4BFC0B5
:1008600000C131E083CF3115F9F0085F1F4F8FE3EE
:10087000898388248394912CAE014F5F5F4F5A0186
:10088000E89477F873FC03C086149104B0F18114E6
:100890009104D1F5611409F435CFB60180E290E0FE
:1008A0000E94BC066A94F6CF0C5F1F4FE0CFF801A0
:1008B000808189830E5F1F4FDCCFF801A190B1903A
:1008C0008F01692D70E076FC02C06FEF7FEFC501EC
:1008D0000E94B1064C01D4CFF801A190B1908F01D4
:1008E000692D70E076FC02C06FEF7FEFC5010E94BA
:1008F0009F064C01689477F8C5CFB60180E290E07E
:100900000E94BC066A94C0CFF50177FC859177FE02
:1009100081915F01B60190E00E94BC0661106A946B
:10092000F1E08F1A9108B3CF61917191072E000CFD
:10093000880B990B68CF872CE89484F82AE030E084
:10094000953739F1572D597F852E903799F058F406
:100950009835A9F09F36D9F0F601868197812B96BC
:10096000EFE00C949B079837B9F774FC05C020E1C1
:1009700030E00FC0689484F8689482F8F8CF74FE71
:1009800003C0872D8660882E20E132E002C028E077
:1009900030E0F80187FE10C06191719181919191D1
:1009A0008F01FE0131965F01AF010E94EC068A19AA
:1009B000A82EE89487F840CF6191719180E090E093
:1009C000EFCF882EBA2C84FE46CFFE01EA0DF11D32
:1009D0008081803309F043C0282D297E822E83FC3C
:1009E0000EC080FE4FC09A2CB61418F4960C9B18BB
:1009F000B62C862D8B196B1408F480E0B80EB61453
:100A000008F042C06B1884FE41C0B60180E390E05C
:100A10000E94BC0682FE09C088E590E081FC02C00D
:100A200088E790E0B6010E94BC06A914D8F1AA9408
:100A3000B12C4FEFA41AB40ACE0101964C01A80EB6
:100A4000B91EF50182915F01B60190E00E94BC06DB
:100A50008A149B04B1F71ECFB92C882EB6CF82FC26
:100A600002C0B394BCCFB394B394B9CFB92C882E41
:100A7000F2CEB60180E290E00E94BC067394761438
:100A8000C0F3B7CF7B2CFBCF612CBDCF882D8678F0
:100A9000811559F280E281FC8BE287FC8DE2B60180
:100AA00090E0C1CFB60180E390E00E94BC069A942A
:100AB000BCCF8FEF9FEF53CF0F931F93CF93DF9355
:100AC000869F8001879F100D969F100D1124C801ED
:100AD0000E947805EC01009729F0A80160E070E021
:100AE0000E94AA06CE01DF91CF911F910F91089528
:100AF0000F931F93CF93DF939C01029710F422E092
:100B000030E0E0912602F091270280E090E0A0E042
:100B1000B0E0309791F4009709F448C0821B930B22
:100B200084309105D0F58A819B816115710581F131
:100B3000FB0193838283FE0111C0408151810281B8
:100B4000138142175307D8F04217530799F41097AF
:100B500061F012960C93129713961C933296CF0164
:100B6000DF91CF911F910F9108950093260210936A
:100B70002702F4CF009751F04817590738F0AC011D
:100B8000DB01CA01BD01DF01F801C3CFEF01F9CFDD
:100B90009093270280932602CECFFE01E80FF91F23
:100BA00021933193029799838883D9CF409128026A
:100BB000509129024115510541F44091080150918D
:100BC00009015093290240932802809106019091D7
:100BD0000701009741F48DB79EB760910A017091AB
:100BE0000B01861B970B4817590708F0B8CF841BD9
:100BF000950B8217930708F4B2CFB9016E5F7F4F50
:100C00008617970708F4ABCF640F751F70932902FE
:100C100060932802FA0121933193A1CFCF93DF9300
:100C20009C010097E9F0FC01329713821282C09177
:100C30002602D0912702DE0180E090E02097A1F407
:100C400080819181280F391F80912802909129027B
:100C50008217930709F068C0F0932902E0932802F5
:100C6000DF91CF910895DA01AE17BF0708F042C0B7
:100C700012964D915C911397CD014115510599F74D
:100C8000DC011396FC93EE9312974D915D919D01BB
:100C9000240F351FE217F30781F4208131812E5F85
:100CA0003F4F240F351FDC0111963C932E93228178
:100CB000338113963C932E931297E0E0F0E08A8103
:100CC0009B810097B1F5DE018D919D918A0F9B1F4D
:100CD00020912802309129022817390709F6309708
:100CE00059F51092270210922602D0932902C09340
:100CF0002802B6CFB383A28340815181240F351FD0
:100D0000A217B30771F44E5F5F4F2D913C9111977D
:100D1000240F351F3183208312962D913C9133830C
:100D20002283009709F0ACCFF0932702E0932602CC
:100D300097CFFE01EC01C3CF13821282D6CFFC0104
:100D40000590615070400110D8F7809590958E0FF6
:100D50009F1F0895DC0101C06D9341505040E0F7A2
:100D60000895FC016150704001900110D8F7809502
:100D700090958E0F9F1F08950F931F93CF93DF932E
:100D8000182F092FEB018B8181FD09C01FEF0FEF99
:100D9000812F902FDF91CF911F910F91089582FFA6
:100DA00014C02E813F818C819D81281739073CF426
:100DB000E881F981CF0101969983888310838E8120
:100DC0009F8101969F838E83E3CFE885F985812FEC
:100DD0000995892BA1F3DACFFA01AA27283051F11E
:100DE000203181F1E8946F936E7F6E5F7F4F8F4F5C
:100DF0009F4FAF4FB1E03ED0B4E03CD0670F781FBB
:100E0000891F9A1FA11D680F791F8A1F911DA11D9F
:100E10006A0F711D811D911DA11D20D009F46894D8
:100E20003F912AE0269F11243019305D3193DEF680
:100E3000CF010895462F4770405D4193B3E00FD036
:100E4000C9F7F6CF462F4F70405D4A3318F0495D21
:100E500031FD4052419302D0A9F7EACFB4E0A69504
:100E60009795879577956795BA95C9F70097610526
:100E7000710508959B01AC010A2E0694579547957C
:100E800037952795BA95C9F7620F731F841F951F71
:100E9000A01D0895052E97FB1EF400940E94610783
:100EA00057FD07D00E94B30707FC03D04EF40C9403
:100EB000610750954095309521953F4F4F4F5F4FBB
:100EC000089590958095709561957F4F8F4F9F4FB6
:100ED00008950E94D507A59F900DB49F900DA49FE3
:100EE000800D911D11240895B7FF0C9469070E948D
:100EF0006907821B930B08952F923F924F925F9246
:100F00006F927F928F929F92AF92BF92CF92DF9219
:100F1000EF92FF920F931F93CF93DF93CDB7DEB77E
:100F2000CA1BDB0B0FB6F894DEBF0FBECDBF099412
:100F30002A88398848885F846E847D848C849B8469
:100F4000AA84B984C884DF80EE80FD800C811B8177
:100F5000AA81B981CE0FD11D0FB6F894DEBF0FBEA6
:100F6000CDBFED010895A1E21A2EAA1BBB1BFD0106
:100F70000DC0AA1FBB1FEE1FFF1FA217B307E40778
:100F8000F50720F0A21BB30BE40BF50B661F771FD0
:100F9000881F991F1A9469F76095709580959095B0
:100FA0009B01AC01BD01CF010895A29FB001B39F89
:100FB000C001A39F700D811D1124911DB29F700D62
:0C0FC000811D1124911D0895F894FFCFAD
:100FCC0000100100000000002A022000585F6A6F28
:100FDC00793A2025336409595F6A6F793A202533B1
:100FEC006409585F7061643A2533642009595F7055
:100FFC0061643A202533640A0D005374617274697C
:10100C006E67205352414D20746573742E2E2E0042
:10101C005772697465207068617365206572726FB0
:10102C00723A206578745F72616D5B2534645D2063
:10103C003D2025303258202873686F756C6420620F
:10104C00652025303258290A00526574726965761C
:10105C00616C207068617365206572726F723A20E2
:10106C006578745F72616D5B2534645D203D20256D
:10107C00303258202873686F756C642062652025A7
:10108C00303258290A005352414D20746573742034
:10109C00636F6D706C657465642077697468200A81
:1010AC00253464206572726F727320696E207772BA
:1010BC0069746520706861736520616E64200A250F
:1010CC003464206572726F727320696E207265745D
:1010DC0072696576616C2070686173650A0A00003C
:00000001FF
